:400000000080002011000000FD000000FD00000008B5044B1A6803F53F5302331A6000F087F800BFFA46004010B5054C237833B9044B13B10448AFF300800123237010BDFE
:40004000A881FF1F000000002C230000084B10B51BB108480849AFF300800848036803B910BD074B002BFBD0BDE81040184700BF000000002C230000AC81FF1F0881FF1F63
:400080000000000008B5034A13685B42136001F08BFC08BD0C81FF1F08B562B60020012100F08CFA00F0C2FA0028FBD000F098FB01F0B8FC0D4801F05BFC40F2DE3001F0A1
:4000C000B9FB0B4C22680B4B1B681A4444F8042B2046094901F020FD204600F0CDFB0A2001F0A8FB00F016FCE7E700BF85000000C481FF1F0C81FF1F30230000FEE700BF0E
:4001000008B5094B1A681044084BC31A802B02DC054B186005E001F0BFFC0C2303604FF0FF32104608BD00BF1081FF1FC082FF1F08B5104E104D16E029686B68AC680022D3
:4001400004E051F8040B43F8040B0432A242F8D1E868002203E0002143F8041B04328242F9D11035013E002EE6D101F09BFCFFF793FFFEE7010000003425000008B5124AB1
:40018000124B1A60124A136843F40073136000230AE0032B03D80F4A52F8231000E00E490E4A42F8231001332F2BF2D90C4B1A780C4B1A70094A0C4B1A6000F0A3F8002298
:4001C0000A4B1A6008BD00BF0004FA050CED00E014ED00E000000000FD0000000080FF1FBC7600400481FF1F08ED00E00081FF1FFEE700BFF0B40022174611E050F8276044
:40020000F3B226F0FF0608E001EB420511F812406D78A5550132013BDBB2002BF4D10137122FEBD9F0BC7047064B1B78DBB203F00701054A11701B09013213704422034B53
:400240001A707047CF0100496E5800407658004008B50A46002101F056FC08BD38B506221E4B1A705222A3F580731A701C4B1B78DBB21C4A13704FF4E1621B4B1A8041F220
:400280005122023B1A80002419250CE0174B1B7803F0010343EA440404F003044FF4F07001F0B6FA013D0DB1032CEFD115B90320FFF79EFF0E4A4FF48073138007231370C9
:4002C00000230C490B704820023108701370053213700222084B1A7038BD00BF004300400F010049A1460040224200402542004004400040064000400140004008B501F07F
:40030000F7FB08BD38B572B6244A137843F00403137000240CE0224963001A1952000A4423445B00C8589188FFF792FF0134E4B2062CF0D94FF090401A49FFF75BFF1A4A1C
:40034000137843F0020313701032137843F002031370164C237843F040032370A2F58632513A137843F010031370114811490A22FFF7C4FF104A137843F0080313700F4DE1
:4003800061232B70FFF76AFF81232B70FFF74CFF0B4821460E22FFF7B1FF38BDE8460040342300004C00004803500140A0430040F05100408C010048224300400048004027
:4003C000B0430040F8B501F02BFA0746404A137843F0010313701032137843F00103137001263C4B1E700225943B1D7002F5E2521B32137803F07F031370002001F030FA6F
:40040000354C237803F0F9032370344A137803F0DF031370237833432370304601F020FA282001F01DFA2E4B1A7802F07F021A701A7802F0BF021A7023782B432370284667
:4004400001F00EFA237843F0040323700024254B1C7001331C70384601F0E6F91720072101F01CFA1720204901F004FA1820072101F014FA18201D4901F0FCF915200721B8
:4004800001F00CFA15201A4901F0F4F92046072101F004FA2046174901F0ECF93046072101F0FCF93046144901F0E4F92846072101F0F4F92846114901F0DCF90C2007213B
:4004C00001F0ECF90C200E4901F0D4F9F8BD00BFA54300409D6000409443004012600040F851004084600040B90E0000890C0000B50E0000FD0D0000350E0000710E0000AB
:40050000C10E000008B5214B18700023204A1370204A1370204A1370204A1370204A1370204A1370204A1370204B4FF400021A604FF080721A604FF400121A6001221A605C
:4005400002221A6004221A6011B1012906D00BE0174A137803F0FE0313700AE0144A137843F00103137004E0114A137843F00103137003220F4B1A708022203B1A7001206B
:4005800001F046F904220C4B1A7008BD8F82FF1F8E82FF1F0082FF1F0182FF1F0282FF1F9282FF1F0382FF1FFF81FF1F00E100E009600040286000401260004038B5054670
:4005C0000C46064B1B7823B9FFF7FCFE0122034B1A7028462146FFF795FF38BDD081FF1F00230A4A13700A4A13700A4A13700A4A13700A4A13700A4A13700A4A1370032212
:40060000094B1A708022203B1A7070478E82FF1F0082FF1F0182FF1F0282FF1F9282FF1F0382FF1FFF81FF1F28600040014B1878704700BF0182FF1F431EDBB2072B3BD82C
:40064000F0B4074600EB40039B001C4C2344DB889BB2C3F500739A4207D900EB40039B002344DA88C2F5007292B200EB40039B00124C2344DB7843EA1223114D04012E196E
:400680002B55D3B2737039B909E0CE5C3D010D4C665501339BB200E000239342F5D3430003449B00054A134400225A705A79D2B20001054B1A54F0BC704700BF2082FF1F2B
:4006C000FC5F004078600040FE5F0040431EDBB2072B0BD8430003449B00054A134400225A705A79D2B20001024B1A54704700BF2082FF1FFE5F00400246002001E0013090
:4007000080B2135C002BFAD1704700BF10B4FF2400220EE00A4B9B5C03EB43039B0009490B449B78DBB2834201D1144602220132D2B2012AEED920465DF8044B704700BF1B
:40074000EC81FF1F2882FF1F10B5204C2079FFF7DDFF237813F0800F0ED06378DBB2212B2FD11B4B07221A80C0EBC000194A1044586000F0F7FA10BD144B5B78DBB2202B10
:4007800002D0222B10D01EE0114A07231380C0EBC00310490B4453600F4A135C43F00103135400F007FB10BD084B9B780B4A22F81030094A135C43F00203135400F092F945
:4007C00010BD002010BD002010BD00BF006000401082FF1F1481FF1FF481FF1FF881FF1F10B500241F4B1C701F4B1C705C700AE01E4B185DC0B2431EDBB2072B01D8FFF79C
:4008000065FF0134E4B2012CF2D9194B1B7813F0FF0F1AD0154B1B7813F0FF0F17D0154B1B7813F0FF0F14D0114B1B78DBB2082B11D80E4B1B78DBB2082B0ED80D4B1B78B7
:40084000DBB2082B0BD8002010BD012010BD012010BD012010BD012010BD012010BD012010BD00BFD181FF1FF481FF1FE881FF1FE481FF1FEC81FF1F2DE9F8438046224B79
:400880001B78224AD65CF6B2FFF736FF05460027344606EB46039B001D4A13441B899BB2AB4208D206EB46039B001344B3F808901FFA89F900E0A946304608EB07014A4623
:4008C000FFF7BAFEC9EB0505ADB245B906EB46039B000F4A13441B899BB2994510D14F44BFB204EB44039B00094A13445B7813F0FF0FF6D025B9304600210A46FFF79CFE7C
:40090000002DC5D1BDE8F883D181FF1FE481FF1F2082FF1F00B583B0074B1B88ADF80430064B1B78064AD05C01A90222FFF784FE03B05DF804FB00BF60230000D181FF1F0C
:40094000E481FF1FC37803F0030390F9020000280FDA032B06D002F001030B48C15442F001020EE0C2F380030848C15442F0040207E0032B05D0C2F340030548C15442F054
:4009800002021046704700BFE481FF1FEC81FF1FE881FF1F1C4B19781C4A13880B449BB2138000230EE01A4A51680978C9B21948C1545168013151600133DBB211880139DA
:4009C00089B21180124A128892B20AB1072BEAD90D4A1278D2B2082A00D05BB10E490A7882F080020A700F210C4A117002210C4A117004E0022209490A7009490A70094A93
:400A00001370014A13707047FF81FF1F8C82FF1F1082FF1F006000400482FF1FFE81FF1F8E82FF1F1C82FF1F0222074B1A708022064B1A700F22064B1A700023054A1370EB
:400A4000054A1370012070478E82FF1F0482FF1FFE81FF1FFF81FF1F1C82FF1F08B5FFF799FF08BD10B4184B197801F00F010239C9B2164A13880B449BB21380002010E04A
:400A8000134B5C68134A125CD2B222705A6801325A600130C0B20139C9B21A88013A92B21A800B4B1B889BB20BB10029E8D10A4B19700A4A137883F0800313700B22084BD7
:400AC0001A705DF8044B7047296000408C82FF1F1082FF1F006000401C82FF1F0482FF1FFE81FF1F0623064A1370064A13708022054B1A700022054B1A700120704700BFF1
:400B00008E82FF1FFE81FF1F0482FF1F1C82FF1F064B9B6843B1054B9A6810709A6804490988518000229A60704700BF1082FF1F8C82FF1F08B5134B1A78D2B21A701B7803
:400B4000DBB213F0800F02D00F4A137008BD0220FFF7DEFF0D4B1B7803F06003202B05D0402B06D043B900F095FC06E000F068FF03E000F037FE00E0002010B90322024B4F
:400B80001A7008BD28600040FE81FF1F0060004008B5084B1978084A13880B449BB213800022064B1A700120FFF7B2FF0322044B1A7008BDFF81FF1F8C82FF1F8E82FF1FA4
:400BC000FE81FF1F08B50B4B1B78DBB2042B06D0062B07D0022B0BD1FFF7DAFF08BDFFF741FF08BD0320FFF793FF0322024B1A7008BD00BF8E82FF1FFE81FF1F08B50022AB
:400C0000044B1A700120FFF783FF0322024B1A7008BD00BF8E82FF1FFE81FF1F08B50B4B1B7813F0FF0F07D0084A137843F0800307490B70002313700022064B1A70012047
:400C4000FFF766FF0322044B1A7008BD9282FF1F086000408E82FF1FFE81FF1F08B5094B1B78DBB2042B06D0062B07D0022B07D1FFF7F4FE08BDFFF7C1FF08BDFFF7CEFF83
:400C800008BD00BF8E82FF1F08B5284B1B78DBB213F0100F48D013F0800F0CD003F00F03012B16D1FFF746FF214B1B7813F0800F11D1012312E013F0400F03D0FFF7CEFFC6
:400CC00001230BE013F0200F07D0FFF77BFF012304E0002302E0002300E0002323B3134B1B7813F0800F1FD1124B1B78124A12781343124A13701278D2B29A4214D10C4BBF
:400D00001B78DBB2094A127812F0800F07D1084B1B78DBB2054A1370137803F00F03044A1278D2B29342EAD108BD00BF28600040FE81FF1F0482FF1F1C82FF1F296000407A
:400D40000022064B1A80064B9B682BB1044A916800230B7092685380704700BF8C82FF1F1082FF1F08B50F4B1B889BB213B9FFF75BFE15E002220C4B1A7000220B4B1A7014
:400D8000FFF7DEFF0A4AD179937943EA0123054A128892B29A4201D9024A1380FFF7FAFD012008BD1082FF1F8E82FF1F0482FF1F0060004008B504220B4B1A7080220B4BF3
:400DC0001A70FFF7BDFF0A4AD179937943EA0123084A128892B29A4201D9064A13800B22054B1A70012008BD8E82FF1F0482FF1F006000401082FF1FFE81FF1F0A4A137868
:400E000003F0FE031370094B9B7C094B1B7B03F00303012B04D0064AD37B83F08003D3730122034B5A7370470B600040FC5F00402082FF1F0B4A137803F0FD0313700A4B6D
:400E400093F82230094B1B7E03F00303012B04D0064AD37E83F08003D3760122034B5A76704700BF0B600040FC5F00402082FF1F0D4A137803F0FB0313700C4B93F8323078
:400E80000B4B93F8243003F00303012B06D0084A92F8273083F0800382F827300122044B83F82520704700BF0B600040FC5F00402082FF1F704700BF08B5FFF791FB08BDE0
:400EC00008B500F09BFC08BD70B588B0054603AC174E0FCE0FC43368237035B322232B7003236B7001A800F0F1FC002402231AE008AA224412F81C2C08A901EB121111F88A
:400F0000141CE954581C00212954981C02F00F0208AE324412F8142C2A54DA1CA9540134E4B20433DBB2212BE2D908B070BD00BF6423000010B401223DE0114613010C2434
:400F40002148C45402EB42039B00204803445B7913F0FF0F12D002EB42039B0003441B7913F0800F04D01001194B03449C700AE01001174B03440820987004E01001144BAF
:400F80000344802098704B000B449B000F480344DC88E4B208010C4901448C71D888C0F30720C871D888C0B20871DB88C3F307234B710132D2B2082ABFD9FF22054B1A709C
:400FC0005DF8044B704700BF706000402082FF1FFC5F00400A600040074B1B78074A02EBC30253681A7C824203D903EBC003586970470020704700BF8F82FF1F7823000060
:40100000F8B5404B1B7813F0FF0F79D03D4B18780138C0B2FFF7E0FF047AC2683A4B1878C0B200236AE01178814264D13749095CC9B25578A9425ED1917801F07F01D678C7
:4010400006F00306DFF8C8E04D000D44AD000EEB05074FF0000C87F803C092F802C087F804C092F803C00EF805C095883D8192F90250002D0DDA012E01D1072700E00D275F
:401080004D000D44AD00224E35446F7101266E700CE0012E01D1052700E009274D000D44AD001B4E35446F7100266E70DFF868E00F010EEB07060125B57001FA05F52944FB
:4010C0008900134D29440D89C5F307250EF807500D89EDB27570CE88F6B20E4D3D44AE71CE88C6F30726EE71CE88F6B22E71C988C1F30721697108320133DBB2A34292D32C
:40110000F8BD00BF0182FF1F0282FF1F0C82FF1F2082FF1F70600040FC5F0040034B1A78034B03EBC2035868704700BF8F82FF1F7823000008B5074B18780138C0B2FFF7C0
:401140004BFF28B14268127900EBC203586908BD002008BD0182FF1F2DE9F84300220EE06F4E53009D18AD00741900217155A170E1702181A172617061710132D2B2082A71
:40118000EED940B90AE000226649CA546649CA540133DBB200E00023012BF4D9634B1B7813F0FF0F00F0B980604B18780138C0B2FFF712FF80464368DB7913F0400F05D0B8
:4011C0005B4A137843F00103137004E0584A137803F0FE03137098F808704FF0000901266CE0D8F80C50002464E0AB7803F07F039E425CD1314606EB46039B00484803445E
:401200001B899BB2A888834205D206EB46039B00434A134418812B784248C35CDBB26878834244D195F802C03D484B000B449B0000EB030E8EF804C095F803E000F803E072
:40124000EB7803F0030395F90200002811DA012B02D14FF0070C01E04FF00D0CDFF8C0E04B0058188000704480F805C00123437012E0012B02D14FF0050C01E04FF0090CF5
:4012800027484FEA410E0EEB01039B00034483F805C0194600234B70AB790A2B01D0022B05D1284631464A46FFF74CFB814608350134E4B2BC4298D30136F6B2082E90D946
:4012C000D8F80C0000220CE0837803F07F0310F8084B03EB43039B0016490B449C700132D2B2BA42F0D3FFF725FF134B1860002301210EE00A4C4A00501880002044C380E8
:40130000028913449BB203F0010213449BB20131C9B20829EED9FFF70DFEBDE8F88300BF2082FF1F0C82FF1FFC81FF1F0182FF1F0382FF1F2882FF1F0882FF1F08B5154B87
:401340001A7902F07F02531EDBB2072B20D8530013449B0010490B44997841F0010199700021D970597841F0020159701B7913F0800F05D01201094B13448D229A7004E077
:401380001201064B134489229A70FFF7ABFB08BD002008BD006000402082FF1FFC5F0040264B1B7903F07F035A1ED2B2072A43D810B55A001A44920021490A44917801F0F9
:4013C000FE0191700021D17019017F241D484454517801F0FD015170127912F0800F14D003EB4302920016490A445278D2B2012A05D11B0102461A440C23937019E01B018E
:40140000104A1A440D23937013E003EB430292000B490A445278D2B2012A05D11B01094A1A440823937004E01B01064A1A4409239370FFF757FB10BD0020704700600040B4
:401440002082FF1FFC5F004010B50E4B1C79E4B20D4B18780138C0B2FFF7BEFD43681B799C4201D9022C0AD8084A135DDBB208490B55044B9B78DBB21355012010BD002018
:4014800010BD00BF006000400182FF1F0C82FF1FFC81FF1F10B59B4B1B78DBB200219A4A118013F0800F00F0AD80964A5278D2B20A2A00F27281DFE812F0690070017001AD
:4014C0007001700170010B007001920070019A008C4BDB78DBB2012B09D1FFF71FFE4268894B5A6012221A80FFF73CFC10BD854BDB78DBB2022B13D1824B9878FFF76CFDB2
:40150000002800F04C8142687F4B5A605A68D1785A68927842EA01221A80FFF723FC10BD784BDB78DBB2032B05D02CE00A7811440133DBB201E000237449724A9278D2B2A1
:401540009A4203D90A7812F0FF0FEFD16D4B9B7813F0FF0F0BD06B4B9B78DBB26C4A127C934204D16B4C2046FFF7AEFC21460B7813F0FF0F00F015810B78634A13805160B4
:40158000FFF7F0FB10BD00F05BFA10BD13F0030317D0022B40F007815B490B80594B1B7903F07F0303EB43039B005B4A13449A78D2B25A4B1A7000225A704B60FFF7D2FBD0
:4015C00010BD514902230B80554B1A78D2B2534B1A7000225A704B60FFF7C4FB10BD4A4B01221A804F4A5A60FFF7BCFB10BD464A01231380434B1B794B490B445360FFF7C9
:40160000B1FB10BD3F4A5278013A0A2A00F2CD80DFE812F04B00CB009600CB000B00CB00CB00CB001300CB003000364B9B78DBB23E4A1370FFF756FA10BD324B9B7803F0B4
:40164000FF041BB1601EC0B2FFF7C6FC04B110B9002C40F0AC80334B1B78DBB29C4206D0304B1C700120324B1870FFF775FDFFF739FA10BDFFF7E8FE002800F09A80214A97
:401680001379DBB21279D2B22A490A702A4AD25C2549C95CD3B28B4204D00122244B1A70FFF7AEFCFFF71EFA10BD03F00303012B17D04BB1022B7ED1124B9B7813F0FF0F1E
:4016C0007BD1FFF76DFE10BD0E4B9B78DBB2012B75D1134A137803F0FD031370FFF702FA10BD084B1B79DBB2012B6AD8054B98781B79DBB21149CA5C22EA0002CA54FFF7E3
:40170000F1F910BD006000401082FF1FE0230000C42400009482FF1F2082FF1FD481FF1F0382FF1F0182FF1F0C82FF1F9282FF1F0082FF1F0282FF1FFC81FF1F9082FF1F21
:4017400003F00303012B17D04BB1022B3BD1224B9B7813F0FF0F38D1FFF7F0FD10BD1E4B9B78DBB2012B32D11C4A137843F002031370FFF7B7F910BD174B1B79DBB2012BD8
:4017800027D8154B98781B79DBB21549CA5C22EA0002CA54FFF7A6F910BD002010BD002010BD002010BD002010BD002010BD002010BD002010BD002010BD002010BD002012
:4017C00010BD002010BD002010BD002010BD002010BD002010BD00BF006000400382FF1F9082FF1F044B1B7813F0800F01D0024B5B780020704700BF00600040024B1878D1
:40180000C0F38010704700BF8F450040000000000230800803D000BF01380046FCD17047EFF3108072B6704780F31088704700BF01BE704710B5044605E0084B1868FFF787
:40184000E7FFA4F50044B4F5004FF6D8034B586800FB04F0FFF7DCFF10BD00BF3081FF1F08B5034B1B7A03FB00F0FFF7D1FF08BD3081FF1F70B504460E46074B1D681F28ED
:4018800002D90020FFF7D4FF04F01F04103455F8240045F8246070BD08ED00E038B504460D46072902D90020FFF7C2FF1F2C02D90020FFF7BDFF04F01F0000F1604000F5D8
:4018C00064406D01EDB2057038BD00BF134B1B78DBB20360124A127843EA02230360114A127843EA024303600F4A127843EA026303600E4B1B78DBB243600D4A127843EAD6
:40190000022343600B4A127843EA024343600A4A127843EA02634360704700BF0301004904010049EC4600400201004901010049000100490501004906010049014B1B6806
:40194000D864704708ED00E04001C0B2014B1870704700BF03E400E00822014B1A60704700E100E00822014B1A60704780E100E010B50446FFF7F6FF2046FFF7DFFF072030
:40198000FFF7E2FFFFF7E8FF10BD00BF024A137843F080031370704779640040014B1870704700BF8B640040014B1878704700BF6B640040014B1860704700BF2864004023
:4019C000014B1868704700BF48640040014B1860704700BF0864004008B501E0FFF7F0FFFFF7E2FF10F0080FF8D108BD10B50B4C2046FFF7DFFF2046FFF7E8FFFFF710FF36
:401A0000074A137843F010031370FFF70DFFFFF7E3FF0120FFF7C2FF10BD00BFFF0D27079B64004008B5054B1B7823B9FFF7DEFF0122024B1A70FFF7A9FF08BDD881FF1F27
:401A400008B5124B1B7803F00303012B02D0022B04D00FE00D4B1B79DBB20CE00B4B1B7903F07F0303EB43039B00094A13449B78DBB200E00023074A1268D35C022B02D1F8
:401A8000FEF762FE08BD002008BD00BF006000402882FF1F0882FF1F014B1868704700BFA081FF1F0E4B70B51E460E4C0025E41AA410A54204D056F8253098470135F8E772
:401AC00000F026FD084B094C1E46E41AA4100025A54204D056F8253098470135F8E770BD1C2500001C2500001C2500002425000010B5431E0A44914204D011F8014B03F8FA
:401B0000014FF8E710BD03460244934202D003F8011BFAE7704700000EB400B54FF402719CB0ADF814106FF00041049107914FF6FF711DABADF81610084953F8042B029010
:401B40000690086802A9019300F064F8029B00221A701CB05DF804EB03B07047A081FF1F2DE9F0478E688246B3420C469046994640D38A8912F4906F3AD025680969022372
:401B80006F1A656905EB450595FBF3F57B1C4B449D4238BF1D4653050FD5294600F030FB064698B121693A46FFF7A2FFA38923F4906343F08003A38113E02A4600F076FBED
:401BC000064670B95046216900F0D6FA0C23CAF80030A3894FF0FF3043F04003A381BDE8F08726613E4426604E466561ED1BA560B14500D24E4632462068414600F0A0FABC
:401C0000A36800209B1BA36023681E442660BDE8F08700002DE9F0439DB003938B8906461C060D4690460CD50B6953B9402100F0E7FA2860286110B90C233360CCE040231C
:401C40006B610023099320238DF8293030238DF82A3043461C4613F8012B1AB9B4EB08090FD002E0252AF5D1F8E73046294642464B46FFF775FF013000F0A980099B4B4447
:401C800009932378002B00F0A28000234FF0FF3204930793059206938DF853301A9304F101084446DFF8489121784846052200F039FA08F10108049B30B1C9EB0000012205
:401CC000824013430493ECE7D80644BF20228DF85320190744BF2B228DF8532022782A2A02D0079923460EE0039A0134111D12680391002ABBBF524243F002030792079278
:401D0000B8BF04930AE01C4622780133303A092A03D80A2000FB0121F5E7079123782E2B1AD163782A2B0AD1039B02341A1D1B680392002BB8BF4FF0FF3305930CE0611C27
:401D400000220C4623780131303B092B03D80A2000FB0232F5E70592DFF8988021784046032200F0DFF938B1049AC8EB00004023834013430493013421781A48062204F147
:401D800001088DF8281000F0CDF988B1164B33B9039B073323F007030833039313E003AB0093304604A92A46104BAFF3008007E003AB0093304604A92A460C4B00F092F88B
:401DC000421C074603D0099B3B44099341E7AB895B0601D4099801E04FF0FF301DB0BDE8F08300BFE424000000000000611B0000DA240000E02400002DE9F84391461F466D
:401E00008A680B6906469342B8BF1346C9F8003091F843200C46DDF8208012B10133C9F800302368990642BFD9F800300233C9F80030256815F006051CD094F8433022685B
:401E4000003318BF012392061FD5E118302081F843005A1C94F845102244023382F8431013E03046394604F119020123C047013007D00135E368D9F800209B1A9D42F0DBE8
:401E8000DBE74FF0FF30BDE8F8833046394604F14302C0470130F4D02268D9F80050E36802F00602042A08BF5D1B2269A3680CBF25EAE57500259342C4BF9B1AED184FF00A
:401EC0000009A9450ADA3046394604F11A020123C0470130D5D009F10109F2E70020BDE8F88300002DE9FF410C461746227E98466E2A06460A9B01F1430100F0B08012D897
:401F0000632A23D00AD8002A00F0BD80582A40F0CC8084F84520DFF804E257E0642A1ED0692A1CD0C1E0732A00F0B18009D86F2A2ED0702A40F0B980226842F020022260E0
:401F40003FE0752A24D0782A3BD0AEE01A6804F14205111D1960136884F84230A9E020681A6810F0800F02D0101D186008E010F0400F02F10400186002D0B2F9003000E0DA
:401F80001368002B3EDA2D225B4284F8432039E020681A6810F0800F02D0101D186007E010F0400F02F10400186001D0138800E01368227EDFF864E16F2A0CBF08220A228D
:401FC0001CE07822DFF858E184F845202268186812F0800F00F104051D6003D1550601D5038800E00368D00744BF42F0200222601BB9226822F0200222601022002084F8DB
:40200000430002E0DFF814E10A226568002DA8BF2068A560A4BF20F00400206003B965B10D46B3FBF2F002FB10331EF8033005F8013D03460028F4D100E00D46082A0BD1AE
:402040002368DA0708D5236962689A42DEBF302305F8013C05F1FF35491B21612EE025681A6815F0800F606903D0151D1D60136808E015F0400F02F104051D60136801D033
:40208000188000E01860002323610D4616E01A68111D1960156800212846626800F042F808B1401B6060636804E004F1420584F8422001232361002384F84330CDF800807B
:4020C0003046214603AA3B46FFF796FE013002D14FF0FF301FE0304639462A462369C0470130F5D023689B0705D4E068039B9842B8BF18460FE00025E368039A9B1A9D42C1
:40210000F3DA3046394604F119020123C0470130DED00135F0E704B0BDE8F081EB240000FC24000010B5C9B202449042034605D01C7801308C42F8D1184610BD002010BDD3
:40214000814210B501EB020301D3421E0BE09842FBD28118D21AD34204D013F8014D01F8014DF8E710BD994204D011F8014B02F8014FF8E710BD000030B500293CD051F809
:40218000042C0B1F1D49002AB8BF9B180A680C4612B95A600B6030BD93420DD219685818904201BF5A5852181A60426823605A6030BD994203D80A4651680029F9D114689B
:4021C00015199D420AD11B682344D0188842136012D10868034413604B680CE002D90C23036030BD1C681819884201BF08684968001918605960536030BD00BFE081FF1F5A
:4022000070B5CC1C24F0030408340C2C38BF0C24002C064603DA0C233360002070BD8C42F9D3204A136810461946A1B10A68121B0ED40B2A03D90A608B188C501FE08B42AA
:402240000BBF5A684A6802605A6018BF0B4616E00B464968E9E7144D2B681BB9304600F04BF828603046214600F046F8421C0346D1D0C51C25F0030585420AD11C6003F1B8
:402280000B001A1D20F00700821A0AD05142995070BD3046E91A00F02FF80130BBD02B46ECE770BDE081FF1FDC81FF1FF8B5074615460E4621B91146BDE8F840FFF7A0BFE3
:4022C0001AB9FFF759FF2846F8BD00F025F8A8420ED238462946FFF793FF044650B131462A46FFF705FC38463146FFF745FF01E03046F8BD2046F8BD38B5064C0023054622
:4023000008462360FDF7FCFE431C02D1236803B12B6038BDB882FF1F51F8040C0028BEBF091851F8043CC018043870470000000025640000005100407000C0510040100037
:4023400000000140001000140140000800400140000A004C0140000200500140200000000D0A00003031323334353637383941424344454600000000010000008023000087
:4023800001000000C424000000000000000000000100000098230000010000008024000003000000C42300000000000000000000000000000000000000000000C023000006
:4023C000020A000000008103080002000100820240000A000100030240000A0002030000040309042C0343007900700072006500730073002000530065006D0069006300E2
:402400006F006E0064007500630074006F007200100355005300420055004100520054003803430044004300200043006F006D006D0075006E006900630061007400690057
:402440006F006E00200049006E007400650072006600610063006500260343004400430020004400610074006100200049006E007400650072006600610063006500000090
:40248000090243000201018032090400000102020103052400100104240202052406000105240100010705810308000A09040100020A0000040705820240000007050302A0
:4024C000400000001201000202000008B40432F201000102800100004300232D302B2000686C4C006566674546470030313233343536373839414243444546003031323382
:4025000034353637383961626364656600000000F8B500BFF8BC08BC9E4670474D0000007D010000F8B500BFF8BC08BC9E46704729000000482500000881FF1FA000000059
:4025400018010000000000000000000001000000C082FF1F00C2010000000800C201000000080000A120000000000200000000000000E02EC05D00001800000000366E01A0
:402580000000000000000000000000000000000000000000000000000000000000000000D8240000000000000000000000000000000000000000000000000000000000001F
:4025C00000000000000000000000000000000000000000000000000000000000000000004081FF1F00000000000000000000000000000000000000000000000000000000FC
:40260000000000000000000000000000000000000000000000000000000000000000000000000000000000000000000000000000000000000000000000000000000000009A
:40264000000000000000000000000000000000000000000000000000000000000000000000000000000000000000000000000000000000000000000000000000000000005A
:40268000000000000000000000000000000000000000000000000000000000000000000000000000000000000000000000000000000000000000000000000000000000001A
:4026C00000000000000000000000000000000000000000000000000000000000000000000000000000000000000000000000000000000000000000000000000000000000DA
:020000040003F7
:0200000480007A
:4000000001450040015200400164004001050140280801400C090140330A0140140B014002170140021901400440014003410140054201400343014004470140044801402E
:40004000024C014002500140015101407E027C408B0DE208401549FF4AFF4BFF4F0150185A045D095F016040624064406540668068806A806C806E80C051C9FFCAFFCBFF78
:40008000CD83CE03CF01D018D280DA04DB04DD99DF01E040E240E440E540E680E880EA80EC80EE804180478048024F80700273809F80A180A340A402D018D218405149FFEB
:4000C0004AFF4BFF4D834E034F0150185A045D095F016040624064406540668068806A806C806E8092019E01B001BE01C015C5ECC602C807C9FFCAFFCBFFCD83CE03CF0148
:40010000D018D401D604D804DA04DB04DD99DF01E040E240E440E540E680E880EA80EC80EE800C020D801E804180478048024D044F81558057405D045E805F0167808740B7
:40014000C290D018D218D6D0D880EA02EE0AEA02EE0A338136403708CCF09F09A640A78087089F09A640A780E2109F01A640A78008080B040F40C20EAE40AF81EA40EE5014
:40018000AC08AF4401010D0100EA00004000000000000000C0000000000000000000000000000000000000000000000000000000000000000000000000000000000000009E
:4001C00000000000000000000000000000000000000000000000000000000000000000000000000000000000000000000000000000000000000000000000000000000000FF
:4002000000000000000000000000000000000000000000000000000000000000000000000000000000000000000000000000000000000000000000000000000000000000BE
:40024000000000000000000000000000000000000000000000000000000000000000000000000000000000000000000000000000000000000000000000000000000000007E
:40028000000000000000000000000000000000000000000000000000000000000000000000000000000000000000000000000000000000000000000000000000000000003E
:0200000490006A
:0400000000004005B7
:0200000490105A
:04000000BC90ACAF55
:0200000490303A
:0200000024F8E2
:0200000490402A
:4000000000000000000000000000000000000000000000000000000000000000000000000000000000000000000000000000000000000000000000000000000000000000C0
:400040000000000000000000000000000000000000000000000000000000000000000000000000000000000000000000000000000000000000000000000000000000000080
:400080000000000000000000000000000000000000000000000000000000000000000000000000000000000000000000000000000000000000000000000000000000000040
:4000C0000000000000000000000000000000000000000000000000000000000000000000000000000000000000000000000000000000000000000000000000000000000000
:0200000490501A
:0C00000000012E16106900012E2435614D
:00000001FF