:400000000080002011000000550100005501000008B5044B1A6803F53F5302331A6000F0B3F800BFFA46004010B5054C237833B9044B13B10448AFF300800123237010BD20
:40004000E081FF1F0000000024520000084B10B51BB108480849AFF300800848036803B910BD074B002BFBD0BDE81040184700BF0000000024520000E481FF1F0881FF1FA5
:400080000000000080B582B062B60020012100F0B1FF00F0E7FF0028FBD001F0BDF802F01FF900F067FA00F055FC002000F072FA00F0D4FC00F0C0FC204C2080012000F0CF
:4000C00069FA00F0CBFC00F0B7FCA080022000F061FA00F0C3FC00F0AFFC6080B4F90450281A02F035FC0646154B1860B4F90000401B02F02DFC134902F032FD0546124BBA
:400100001860124C304602F08DFA06460F46284602F088FACDE9000120460D4932463B4603F08CFA204601F0C3F8052000F0E2FD01F00CF9052000F0DDFDB6E72482FF1F46
:400140003882FF1F0080FC432C82FF1FFC81FF1F28520000FEE700BF08B5094B1A681044084BC31AB3F5007F02DC054B186005E002F092FD0C2303604FF0FF32104608BDFC
:400180000C81FF1F2083FF1F08B5104E104D16E029686B68AC68002204E051F8040B43F8040B0432A242F8D1E868002203E0002143F8041B04328242F9D11035013E002E1C
:4001C000E6D102F06FFDFFF75DFFFEE7010000008C55000008B5124A124B1A60124A136843F40073136000230AE0032B03D80F4A52F8231000E00E490E4A42F823100133D1
:400200002F2BF2D90C4B1A780C4B1A70094A0C4B1A6000F031F900220A4B1A6008BD00BF0004FA050CED00E014ED00E000000000550100000080FF1FBC7600400481FF1F56
:4002400008ED00E00081FF1FFEE700BFF0B40022174611E050F82760F3B226F0FF0608E001EB420511F812406D78A5550132013BDBB2002BF4D10137152FEBD9F0BC7047DF
:400280000E4B1B78DBB203F007010D4A11701B09013213704FF410720A4B1A80102203F64F131A70282275331A70202258331A704422A3F2E2231A70704700BFCF01004961
:4002C0006E5800403C51004008B50A46002102F01AFD08BD08B502F00BFD08BD38B500242C4B1C80502202331A702B482B490422FFF7F0FF06222A4B1A705222A3F5807346
:400300001A70284B1B78DBB2274A13704FF4E162264B1A8041F25122023B1A8019250CE0234B1B7803F0010343EA440404F003044FF4F07000F0CCFC013D0DB1032CEFD1C6
:4003400015B90320FFF780FF1A4A4FF48073138007231370002318490B704820023108701370053213700222144B1A7004220A331A70134A137843F001031370013A13788C
:4003800043F001031370013A137843F08003137038BD00BF8040004000410040E4000048004300400F010049A146004022420040254200400440004006400040014000404A
:4003C000A2430040022815D810B44000C0B20A4B53F820101A18147E0A7822430A700130C0B253F820201844017E13780B4313705DF8044B704700BF34520000022817D838
:4004000010B44000C0B20B4B53F820101A18147E0A7822EA04020A700130C0B253F820201844017E137823EA010313705DF8044B704700BF34520000012809D8054B03EB93
:400440008002126A184490F8281013780B431370704700BF3452000001280AD8054B03EB8002126A184490F82810137823EA0103137070473452000038B572B62C4A137835
:4004800043F00403137000240AE02A4963001A1952000A44D06A118EFFF716FF0134E4B2072CF2D94FF090402349FFF7CFFE0A22224B1A7022490B7843F002030B701031D8
:4004C0000B7843F002030B701E4C237843F040032370A1F5863151390B7843F010030B7019481A49FFF7F6FE19481A490822FFF7F1FE194819490822FFF7ECFE184819498D
:400500000822FFF7E7FE184A137843F008031370164D61232B70FFF7E1FE81232B70FFF7AFFE134821460E22FFF7D4FE38BD00BFE8460040345200005800004883580040B2
:4005400003500140A0430040F0510040C000004812510040CC00004822510040D400004832510040DC0000482243004000480040B043004010B5002404E02046FFF73EFF08
:400580000134E4B2022CF8D9FF22014B1A7010BD1081FF1F10B50446FFF7ECFF2046FFF711FF014B1C7010BD1081FF1F10B59DF80840012C4AD10138092826D8DFE800F045
:4005C0000525250525250D15251D0F2B02D9214800781BE02048007818E00F2B02D91F48007813E01E48007810E00F2B02D91D4800780BE01C48007808E00F2B02D91B4862
:40060000007803E01A48007800E0002040B201EB401101FB02F1C90B8AB20D2B0BD8C3F10E0289B211418AB2124901EB8401013301F8023C05E00F4B03EB84030F2103F899
:40064000021C013C0B4B23F8242010BD002000F04FFB10BD180100491C010049190100491D0100491A0100491E0100491B0100491F0100490882FF1FF8B5074600F030FB8D
:4006800006460D4D2B7843F003032B700B4C237843F0030323700A4B1F70032000F040FB2B7803F0FC032B70237803F0FC032370304600F019FBF8BDF8460040F9460040B1
:4006C00092580040F8B50022314B1A7101285ED13422304B1A70042202331A70072701331F70002401331C7001331C703F2201331A701B2202331A70712201331A7001332D
:400700001C7001250A331D70502203F527631A70272201331A702C2201331A7001331C70552203331A705A2001331870052201331A70022602331E70122201331A70282273
:4007400001331A70EB2201331A70FFF795FF5822114B1A7001331C7005331E7001331E7001331C7001331C70284600F09DF946F266620A4B1A602846294600F0B9F938467E
:40078000294600F039FA1D20054900F0D3FAF8BD0882FF1F004E0040945800403C82FF1F850A0000F0B583B0284D01272F70284E00247471102000F089F9102000F00AFA84
:4007C0001D20072100F0CAFA0422224B1A7001331C7007331C70204A137843F0180313701E4B1C7003F2F5231C7001331C700A22A3F209331A7001331C7002331C705B22A4
:4008000005331A705E2201331A7004331C701422A3F68C231A700097384649F2DA014FF400421023FFF7C2FE2B7806EB830313F8022C0B4B1A702B78013B36F82320094B7D
:400840001A802878FFF73EFF03B0F0BD1181FF1F0882FF1F96580040075B0040935800400E4E00400C4E004010B500F039FA0446314B1A78D2B2314B197841F00101197095
:40088000197841F0100119701033197841F001011970197841F01001197029490B7843F002030B7001310B7843F002030B7001F58C5118310B7843F003030B70012A04D18D
:4008C000204A137843F008031370032000F028FA1B4A137803F0FD0313700132137803F0FD03137002F58B521E32137843F0060313707A22144B1A70144A137843F0010360
:4009000013701032137843F0010313700F3A137843F0010313701032137843F0010313704FF000530A4A1360A2F5C0721360204600F0DAF910BD00BF1181FF1FAA43004071
:40094000F84600409258004082580040A143004080E200E008B5084B9B794BB9064BDB7913F0FF0F01D1FFF71DFF0122024B9A71FFF77AFF08BD00BF0882FF1F024A1378A0
:4009800043F0010313707047004E0040024A137803F0FE0313707047004E0040094B1B7913F0FF0F03D0074B5B79DBB203E0064B1B7803F00103012B01D00028EED0184627
:4009C000704700BF0882FF1F014E0040154B1B7803F00303012B07D8134B1888023B1B889BB243EA004013E0022B0AD10E4B1888023B1B7843EA00430C4A107843EA00205C
:400A000006E00B4B188883B2074A108843EA0040084B1B7913F0FF0F02D00022054B5A71704700BF144E0040124E0040114E0040104E00400882FF1F064B1B68C01A4FF4BA
:400A40007A7303FB00F0044B1B6890FBF3F000B2704700BF4082FF1F3C82FF1F10B5084A137843F004031370FFF788FF0020FFF795FFFFF7ABFF0446FFF788FF204610BD57
:400A8000014E0040704700BF10B5002404E02046FFF7E2FC0134E4B2012CF8D9FF22014B1A7010BD1281FF1F10B50446FFF7ECFF2046FFF7C1FC014B1C7010BD1281FF1F8D
:400AC000014B188880B2704780400040034B1A7800F0F80010431870704700BF82400040024B187800F00700704700BF8240004070B505460E46FFF7F3FF0446FFF7E0FFEF
:400B0000854256D02B4B1B7803F0010294B900B185B938B9284B1D80284A137803F0BF03137070BD254A137843F040031370224B1D8070BD22B3002321490B7001240F31BE
:400B40000C7004310B700C390B7803F07F030B701A4B1B7813F0080F00D08DB9194B18800721013B1970164B1B7813F0010FFAD110490B7803F0FE030B700021104B19705E
:400B80000C4B1B7813F0010F0DD00E4B1D800EB1032200E001220A4B1A70094B1B7813F0010FFAD170BD044B1D8002490B7813430B7070BDA24300408040004082400040CE
:400BC0000140004002400040014B188880B2704700410040034B1A7800F0F80010431870704700BF02410040024B187800F00700704700BF0241004070B505460E46FFF779
:400C0000F3FF0446FFF7E0FF854256D02B4B1B7803F0010294B900B185B938B9284B1D80284A137803F0BF03137070BD254A137843F040031370224B1D8070BD22B30023F6
:400C400021490B70012413310C7004390B7008390B7803F07F030B701A4B1B7813F0080F00D08DB9194B18800721013B1970164B1B7813F0010FFAD110490B7803F0FE038B
:400C80000B700021104B19700C4B1B7813F0010F0DD00E4B1D800EB1032200E001220A4B1A70094B1B7813F0010FFAD170BD044B1D8002490B7813430B7070BDA143004050
:400CC000004100400241004001400040024000400230800803D000BF01380046FCD17047EFF3108072B6704780F31088704700BF01BE704710B5044605E0084B1868FFF799
:400D0000E7FFA4F50044B4F5004FF6D8034B586800FB04F0FFF7DCFF10BD00BF1481FF1F08B5034B1B7A03FB00F0FFF7D1FF08BD1481FF1F70B504460E46074B1D681F2870
:400D400002D90020FFF7D4FF04F01F04103455F8240045F8246070BD08ED00E038B504460D46072902D90020FFF7C2FF1F2C02D90020FFF7BDFF04F01F0000F1604000F523
:400D800064406D01EDB2057038BD00BF134B1B78DBB20360124A127843EA02230360114A127843EA024303600F4A127843EA026303600E4B1B78DBB243600D4A127843EA21
:400DC000022343600B4A127843EA024343600A4A127843EA02634360704700BF0301004904010049EC4600400201004901010049000100490501004906010049F8B5FFF77E
:400E00006FFF0746404A137843F0010313701032137843F00103137001263C4B1E700225943B1D7002F5E2521B32137803F07F0313700020FFF774FF354C237803F0F90353
:400E40002370344A137803F0DF0313702378334323703046FFF764FF2820FFF761FF2E4B1A7802F07F021A701A7802F0BF021A7023782B4323702846FFF752FF237843F077
:400E8000040323700024254B1C7001331C703846FFF72AFF17200721FFF760FF17202049FFF748FF18200721FFF758FF18201D49FFF740FF15200721FFF750FF15201A49D0
:400EC000FFF738FF20460721FFF748FF20461749FFF730FF30460721FFF740FF30461449FFF728FF28460721FFF738FF28461149FFF720FF0C200721FFF730FF0C200E49B0
:400F0000FFF718FFF8BD00BFA54300409D6000409443004012600040F851004084600040F1180000C1160000ED180000351800006D180000A9180000F918000008B5214BA3
:400F400018700023204A1370204A1370204A1370204A1370204A1370204A1370204A1370204B4FF400021A604FF080721A604FF400121A6001221A6002221A6004221A60CC
:400F800011B1012906D00BE0174A137803F0FE0313700AE0144A137843F00103137004E0114A137843F00103137003220F4B1A708022203B1A700120FFF78AFE04220C4B64
:400FC0001A7008BDEF82FF1FEE82FF1F6082FF1F6182FF1F6282FF1FF282FF1F6382FF1F5F82FF1F00E100E009600040286000401260004038B505460C46064B1B7823B9C0
:40100000FFF7FCFE0122034B1A7028462146FFF795FF38BD1082FF1F00230A4A13700A4A13700A4A13700A4A13700A4A13700A4A13700A4A13700322094B1A708022203BBD
:401040001A707047EE82FF1F6082FF1F6182FF1F6282FF1FF282FF1F6382FF1F5F82FF1F28600040014B1878704700BF6182FF1F431EDBB2072B3BD8F0B4074600EB40039D
:401080009B001C4C2344DB889BB2C3F500739A4207D900EB40039B002344DA88C2F5007292B200EB40039B00124C2344DB7843EA1223114D04012E192B55D3B2737039B969
:4010C00009E0CE5C3D010D4C665501339BB200E000239342F5D3430003449B00054A134400225A705A79D2B20001054B1A54F0BC704700BF8082FF1FFC5F004078600040A8
:40110000FE5F0040431EDBB2072B0BD8430003449B00054A134400225A705A79D2B20001024B1A54704700BF8082FF1FFE5F00400246002001E0013080B2135C002BFAD101
:40114000704700BF10B4FF2400220EE00A4B9B5C03EB43039B0009490B449B78DBB2834201D1144602220132D2B2012AEED920465DF8044B704700BF4C82FF1F8882FF1F54
:4011800010B5204C2079FFF7DDFF237813F0800F0ED06378DBB2212B2FD11B4B07221A80C0EBC000194A1044586000F0F7FA10BD144B5B78DBB2202B02D0222B10D01EE01C
:4011C000114A07231380C0EBC00310490B4453600F4A135C43F00103135400F007FB10BD084B9B780B4A22F81030094A135C43F00203135400F092F910BD002010BD00201E
:4012000010BD00BF006000407082FF1F2481FF1F5482FF1F5882FF1F10B500241F4B1C701F4B1C705C700AE01E4B185DC0B2431EDBB2072B01D8FFF765FF0134E4B2012C9D
:40124000F2D9194B1B7813F0FF0F1AD0154B1B7813F0FF0F17D0154B1B7813F0FF0F14D0114B1B78DBB2082B11D80E4B1B78DBB2082B0ED80D4B1B78DBB2082B0BD8002006
:4012800010BD012010BD012010BD012010BD012010BD012010BD012010BD00BF1182FF1F5482FF1F4882FF1F4482FF1F4C82FF1F2DE9F8438046224B1B78224AD65CF6B254
:4012C000FFF736FF05460027344606EB46039B001D4A13441B899BB2AB4208D206EB46039B001344B3F808901FFA89F900E0A946304608EB07014A46FFF7BAFEC9EB050546
:40130000ADB245B906EB46039B000F4A13441B899BB2994510D14F44BFB204EB44039B00094A13445B7813F0FF0FF6D025B9304600210A46FFF79CFE002DC5D1BDE8F883BA
:401340001182FF1F4482FF1F8082FF1F00B583B0074B1B88ADF80430064B1B78064AD05C01A90222FFF784FE03B05DF804FB00BF905200001182FF1F4482FF1FC37803F0F1
:40138000030390F9020000280FDA032B06D002F001030B48C15442F001020EE0C2F380030848C15442F0040207E0032B05D0C2F340030548C15442F002021046704700BFEB
:4013C0004482FF1F4C82FF1F4882FF1F1C4B19781C4A13880B449BB2138000230EE01A4A51680978C9B21948C1545168013151600133DBB21188013989B21180124A12887B
:4014000092B20AB1072BEAD90D4A1278D2B2082A00D05BB10E490A7882F080020A700F210C4A117002210C4A117004E0022209490A7009490A70094A1370014A1370704702
:401440005F82FF1FEC82FF1F7082FF1F006000406482FF1F5E82FF1FEE82FF1F7C82FF1F0222074B1A708022064B1A700F22064B1A700023054A1370054A1370012070475D
:40148000EE82FF1F6482FF1F5E82FF1F5F82FF1F7C82FF1F08B5FFF799FF08BD10B4184B197801F00F010239C9B2164A13880B449BB21380002010E0134B5C68134A125CDB
:4014C000D2B222705A6801325A600130C0B20139C9B21A88013A92B21A800B4B1B889BB20BB10029E8D10A4B19700A4A137883F0800313700B22084B1A705DF8044B704795
:4015000029600040EC82FF1F7082FF1F006000407C82FF1F6482FF1F5E82FF1F0623064A1370064A13708022054B1A700022054B1A700120704700BFEE82FF1F5E82FF1F1E
:401540006482FF1F7C82FF1F064B9B6843B1054B9A6810709A6804490988518000229A60704700BF7082FF1FEC82FF1F08B5134B1A78D2B21A701B78DBB213F0800F02D013
:401580000F4A137008BD0220FFF7DEFF0D4B1B7803F06003202B05D0402B06D043B900F095FC06E000F0AEFE03E000F037FE00E0002010B90322024B1A7008BD286000409A
:4015C0005E82FF1F0060004008B5084B1978084A13880B449BB213800022064B1A700120FFF7B2FF0322044B1A7008BD5F82FF1FEC82FF1FEE82FF1F5E82FF1F08B50B4BDE
:401600001B78DBB2042B06D0062B07D0022B0BD1FFF7DAFF08BDFFF741FF08BD0320FFF793FF0322024B1A7008BD00BFEE82FF1F5E82FF1F08B50022044B1A700120FFF75F
:4016400083FF0322024B1A7008BD00BFEE82FF1F5E82FF1F08B50B4B1B7813F0FF0F07D0084A137843F0800307490B70002313700022064B1A700120FFF766FF0322044B5D
:401680001A7008BDF282FF1F08600040EE82FF1F5E82FF1F08B5094B1B78DBB2042B06D0062B07D0022B07D1FFF7F4FE08BDFFF7C1FF08BDFFF7CEFF08BD00BFEE82FF1FD5
:4016C00008B5284B1B78DBB213F0100F48D013F0800F0CD003F00F03012B16D1FFF746FF214B1B7813F0800F11D1012312E013F0400F03D0FFF7CEFF01230BE013F0200FED
:4017000007D0FFF77BFF012304E0002302E0002300E0002323B3134B1B7813F0800F1FD1124B1B78124A12781343124A13701278D2B29A4214D10C4B1B78DBB2094A1278B8
:4017400012F0800F07D1084B1B78DBB2054A1370137803F00F03044A1278D2B29342EAD108BD00BF286000405E82FF1F6482FF1F7C82FF1F296000400022064B1A80064BAE
:401780009B682BB1044A916800230B7092685380704700BFEC82FF1F7082FF1F08B50F4B1B889BB213B9FFF75BFE15E002220C4B1A7000220B4B1A70FFF7DEFF0A4AD179F7
:4017C000937943EA0123054A128892B29A4201D9024A1380FFF7FAFD012008BD7082FF1FEE82FF1F6482FF1F0060004008B504220B4B1A7080220B4B1A70FFF7BDFF0A4A6A
:40180000D179937943EA0123084A128892B29A4201D9064A13800B22054B1A70012008BDEE82FF1F6482FF1F006000407082FF1F5E82FF1F0A4A137803F0FE031370094B61
:401840009B7C094B1B7B03F00303012B04D0064AD37B83F08003D3730122034B5A7370470B600040FC5F00408082FF1F0B4A137803F0FD0313700A4B93F82230094B1B7EC4
:4018800003F00303012B04D0064AD37E83F08003D3760122034B5A76704700BF0B600040FC5F00408082FF1F0D4A137803F0FB0313700C4B93F832300B4B93F8243003F070
:4018C0000303012B06D0084A92F8273083F0800382F827300122044B83F82520704700BF0B600040FC5F00408082FF1F704700BF08B5FFF791FB08BD08B500F09BFC08BD55
:4019000070B588B0054603AC174E0FCE0FC43368237035B322232B7003236B7001A8FFF735FA002402231AE008AA224412F81C2C08A901EB121111F8141CE954581C0021FE
:401940002954981C02F00F0208AE324412F8142C2A54DA1CA9540134E4B20433DBB2212BE2D908B070BD00BF9452000010B401223DE0114613010C242148C45402EB4203DA
:401980009B00204803445B7913F0FF0F12D002EB42039B0003441B7913F0800F04D01001194B03449C700AE01001174B03440820987004E01001144B0344802098704B00DE
:4019C0000B449B000F480344DC88E4B208010C4901448C71D888C0F30720C871D888C0B20871DB88C3F307234B710132D2B2082ABFD9FF22054B1A705DF8044B704700BF72
:401A0000706000408082FF1FFC5F00400A600040074B1B78074A02EBC30253681A7C824203D903EBC003586970470020704700BFEF82FF1FA8520000F8B5404B1B7813F042
:401A4000FF0F79D03D4B18780138C0B2FFF7E0FF047AC2683A4B1878C0B200236AE01178814264D13749095CC9B25578A9425ED1917801F07F01D67806F00306DFF8C8E0CD
:401A80004D000D44AD000EEB05074FF0000C87F803C092F802C087F804C092F803C00EF805C095883D8192F90250002D0DDA012E01D1072700E00D274D000D44AD00224ED8
:401AC00035446F7101266E700CE0012E01D1052700E009274D000D44AD001B4E35446F7100266E70DFF868E00F010EEB07060125B57001FA05F529448900134D29440D8980
:401B0000C5F307250EF807500D89EDB27570CE88F6B20E4D3D44AE71CE88C6F30726EE71CE88F6B22E71C988C1F30721697108320133DBB2A34292D3F8BD00BF6182FF1F58
:401B40006282FF1F6C82FF1F8082FF1F70600040FC5F0040034B1A78034B03EBC2035868704700BFEF82FF1FA852000008B5074B18780138C0B2FFF74BFF28B14268127954
:401B800000EBC203586908BD002008BD6182FF1F2DE9F84300220EE06F4E53009D18AD00741900217155A170E1702181A172617061710132D2B2082AEED940B90AE0002253
:401BC0006649CA546649CA540133DBB200E00023012BF4D9634B1B7813F0FF0F00F0B980604B18780138C0B2FFF712FF80464368DB7913F0400F05D05B4A137843F00103D3
:401C0000137004E0584A137803F0FE03137098F808704FF0000901266CE0D8F80C50002464E0AB7803F07F039E425CD1314606EB46039B00484803441B899BB2A888834294
:401C400005D206EB46039B00434A134418812B784248C35CDBB26878834244D195F802C03D484B000B449B0000EB030E8EF804C095F803E000F803E0EB7803F0030395F924
:401C80000200002811DA012B02D14FF0070C01E04FF00D0CDFF8C0E04B0058188000704480F805C00123437012E0012B02D14FF0050C01E04FF0090C27484FEA410E0EEBA5
:401CC00001039B00034483F805C0194600234B70AB790A2B01D0022B05D1284631464A46FFF74CFB814608350134E4B2BC4298D30136F6B2082E90D9D8F80C0000220CE002
:401D0000837803F07F0310F8084B03EB43039B0016490B449C700132D2B2BA42F0D3FFF725FF134B1860002301210EE00A4C4A00501880002044C380028913449BB203F065
:401D4000010213449BB20131C9B20829EED9FFF70DFEBDE8F88300BF8082FF1F6C82FF1F5C82FF1F6182FF1F6382FF1F8882FF1F6882FF1F08B5154B1A7902F07F02531E47
:401D8000DBB2072B20D8530013449B0010490B44997841F0010199700021D970597841F0020159701B7913F0800F05D01201094B13448D229A7004E01201064B134489223E
:401DC0009A70FFF7ABFB08BD002008BD006000408082FF1FFC5F0040264B1B7903F07F035A1ED2B2072A43D810B55A001A44920021490A44917801F0FE0191700021D17053
:401E000019017F241D484454517801F0FD015170127912F0800F14D003EB4302920016490A445278D2B2012A05D11B0102461A440C23937019E01B01104A1A440D239370BA
:401E400013E003EB430292000B490A445278D2B2012A05D11B01094A1A440823937004E01B01064A1A4409239370FFF757FB10BD00207047006000408082FF1FFC5F00409A
:401E800010B50E4B1C79E4B20D4B18780138C0B2FFF7BEFD43681B799C4201D9022C0AD8084A135DDBB208490B55044B9B78DBB21355012010BD002010BD00BF00600040FD
:401EC0006182FF1F6C82FF1F5C82FF1F10B59B4B1B78DBB200219A4A118013F0800F00F0AD80964A5278D2B20A2A00F27281DFE812F06900700170017001700170010B0010
:401F00007001920070019A008C4BDB78DBB2012B09D1FFF71FFE4268894B5A6012221A80FFF73CFC10BD854BDB78DBB2022B13D1824B9878FFF76CFD002800F04C81426836
:401F40007F4B5A605A68D1785A68927842EA01221A80FFF723FC10BD784BDB78DBB2032B05D02CE00A7811440133DBB201E000237449724A9278D2B29A4203D90A7812F0AA
:401F8000FF0FEFD16D4B9B7813F0FF0F0BD06B4B9B78DBB26C4A127C934204D16B4C2046FFF7AEFC21460B7813F0FF0F00F015810B78634A13805160FFF7F0FB10BD00F008
:401FC000A1F910BD13F0030317D0022B40F007815B490B80594B1B7903F07F0303EB43039B005B4A13449A78D2B25A4B1A7000225A704B60FFF7D2FB10BD514902230B80C8
:40200000554B1A78D2B2534B1A7000225A704B60FFF7C4FB10BD4A4B01221A804F4A5A60FFF7BCFB10BD464A01231380434B1B794B490B445360FFF7B1FB10BD3F4A5278C9
:40204000013A0A2A00F2CD80DFE812F04B00CB009600CB000B00CB00CB00CB001300CB003000364B9B78DBB23E4A1370FFF756FA10BD324B9B7803F0FF041BB1601EC0B277
:40208000FFF7C6FC04B110B9002C40F0AC80334B1B78DBB29C4206D0304B1C700120324B1870FFF775FDFFF739FA10BDFFF7E8FE002800F09A80214A1379DBB21279D2B2E4
:4020C0002A490A702A4AD25C2549C95CD3B28B4204D00122244B1A70FFF7AEFCFFF71EFA10BD03F00303012B17D04BB1022B7ED1124B9B7813F0FF0F7BD1FFF76DFE10BD82
:402100000E4B9B78DBB2012B75D1134A137803F0FD031370FFF702FA10BD084B1B79DBB2012B6AD8054B98781B79DBB21149CA5C22EA0002CA54FFF7F1F910BD00600040BB
:402140007082FF1F10530000F4530000F482FF1F8082FF1F1482FF1F6382FF1F6182FF1F6C82FF1FF282FF1F6082FF1F6282FF1F5C82FF1FF082FF1F03F00303012B17D001
:402180004BB1022B3BD1224B9B7813F0FF0F38D1FFF7F0FD10BD1E4B9B78DBB2012B32D11C4A137843F002031370FFF7B7F910BD174B1B79DBB2012B27D8154B98781B7997
:4021C000DBB21549CA5C22EA0002CA54FFF7A6F910BD002010BD002010BD002010BD002010BD002010BD002010BD002010BD002010BD002010BD002010BD002010BD0020F1
:4022000010BD002010BD002010BD002010BD00BF006000406382FF1FF082FF1F044B1B7813F0800F01D0024B5B780020704700BF00600040024B1878C0F38010704700BFE7
:402240008F450040054A137843F0020313701032137843F002031370704700BFA8430040054B1A7802F0FD021A701A7800F0020010431870704700BF24580040014B1870CA
:40228000704700BF815B0040094B1B7803F00C035B08084A127812F0040F00D0013303F1924393F83031DBB2034A1370704700BF24580040255800400946004008B51822C4
:4022C000064B1A700133002018701A78D2B21A70FFF7C6FFFFF7D8FF08BD00BF2458004008B5074B1B7823B9FFF7E8FF0122044B1A70FFF7A7FF0D20FFF7C0FF08BD00BF66
:402300001882FF1F08B5124B1B7803F00303012B02D0022B04D00FE00D4B1B79DBB20CE00B4B1B7903F07F0303EB43039B00094A13449B78DBB200E00023074A1268D35C77
:40234000022B02D1FEF71CFF08BD002008BD00BF006000408882FF1F6882FF1F81F0004102E000BF83F0004330B54FEA41044FEA430594EA050F08BF90EA020F1FBF54EA27
:40238000000C55EA020C7FEA645C7FEA655C00F0E2804FEA5454D4EB5555B8BF6D420CDD2C4480EA020281EA030382EA000083EA010180EA020281EA0303362D88BF30BD26
:4023C00011F0004F4FEA01314FF4801C4CEA113102D0404261EB410113F0004F4FEA03334CEA133302D0524263EB430394EA050F00F0A780A4F10104D5F1200E0DDB02FA97
:402400000EFC22FA05F2801841F1000103FA0EF2801843FA05F359410EE0A5F120050EF1200E012A03FA0EFC28BF4CF0020C43FA05F3C01851EBE37101F0004507D54FF029
:40244000000EDCF1000C7EEB00006EEB0101B1F5801F1BD3B1F5001F0CD349085FEA30004FEA3C0C04F101044FEA445212F5800F80F09A80BCF1004F08BF5FEA500C50F1FD
:40248000000041EB045141EA050130BD5FEA4C0C404141EB010111F4801FA4F10104E9D191F0000F04BF01460020B1FA81F308BF2033A3F10B03B3F120020CDA0C3208DDD1
:4024C00002F1140CC2F10C0201FA0CF021FA02F10CE002F11402D8BFC2F1200C01FA02F120FA0CFCDCBF41EA0C019040E41AA2BF01EB0451294330BD6FEA04041F3C1CDA3A
:402500000C340EDC04F11404C4F1200220FA04F001FA02F340EA030021FA04F345EA030130BDC4F10C04C4F1200220FA02F001FA04F340EA0300294630BD21FA04F029468F
:4025400030BD94F0000F83F4801306BF81F480110134013D4EE77FEA645C18BF7FEA655C29D094EA050F08BF90EA020F05D054EA000C04BF1946104630BD91EA030F1EBF69
:402580000021002030BD5FEA545C05D14000494128BF41F0004130BD14F580043CBF01F5801130BD01F0004545F0FE4141F470014FF0000030BD7FEA645C1ABF19461046DF
:4025C0007FEA655C1CBF0B46024650EA013406BF52EA033591EA030F41F4002130BD00BF90F0000F04BF0021704730B54FF4806404F132044FF000054FF0000150E700BF2B
:4026000090F0000F04BF0021704730B54FF4806404F1320410F0004548BF40424FF000013EE700BF42004FEAE2014FEA31014FEA02701FBF12F07F4393F07F4F81F06051BE
:40264000704792F0000F14BF93F07F4F704730B54FF4607401F0004521F0004120E700BF50EA010208BF704730B54FF000050AE050EA010208BF704730B511F0004502D562
:40268000404261EB41014FF4806404F132045FEA915C3FF4DCAE4FF003025FEADC0C18BF03325FEADC0C18BF033202EBDC02C2F1200300FA03FC20FA02F001FA03FE40EA3B
:4026C0000E0021FA02F11444C1E600BF4FF0FF3C06E000BF4FF0010C02E000BF4FF0010C4DF804CD4FEA410C7FEA6C5C4FEA430C18BF7FEA6C5C1BD001B050EA410C0CBF5D
:4027000052EA430C91EA030F02BF90EA020F0020704710F1000F91EA030F58BF994208BF90422CBFD8176FEAE37040F0010070474FEA410C7FEA6C5C02D150EA013C07D1EF
:402740004FEA430C7FEA6C5CD6D152EA033CD3D05DF8040B704700BF8446104662468C461946634600E000BF01B5FFF7B7FF002848BF10F1000F01BD4DF808EDFFF7F4FF3E
:402780000CBF012000205DF808FB00BF4DF808EDFFF7EAFF34BF012000205DF808FB00BF4DF808EDFFF7E0FF94BF012000205DF808FB00BF4DF808EDFFF7CEFF94BF012067
:4027C00000205DF808FB00BF4DF808EDFFF7C4FF34BF012000205DF808FB00BF80F0004002E000BF81F0004142001FBF5FEA410392EA030F7FEA226C7FEA236C6AD04FEAC4
:402800001262D2EB1363C1BFD218414048404140B8BF5B42192B88BF704710F0004F40F4000020F07F4018BF404211F0004F41F4000121F07F4118BF494292EA030F3FD0A6
:40284000A2F1010241FA03FC10EB0C00C3F1200301FA03F100F0004302D5494260EB4000B0F5000F13D3B0F1807F06D340084FEA310102F10102FE2A51D2B1F1004F40EB78
:40288000C25008BF20F0010040EA03007047490040EB000010F4000FA2F10102EDD1B0FA80FCACF1080CB2EB0C0200FA0CF0AABF00EBC25052421843BCBFD0401843704705
:4028C00092F0000F81F4000106BF80F400000132013BB5E74FEA41037FEA226C18BF7FEA236C21D092EA030F04D092F0000F08BF0846704790EA010F1CBF0020704712F05C
:402900007F4F04D1400028BF40F00040704712F100723CBF00F50000704700F0004343F0FE4040F4000070477FEA226216BF08467FEA23630146420206BF5FEA412390EA85
:40294000010F40F4800070474FF0000304E000BF10F0004348BF40425FEA000C08BF704743F0964301464FF000001CE050EA010208BF70474FF000030AE000BF50EA0102E7
:4029800008BF704711F0004302D5404261EB41015FEA010C02BF84460146002043F0B64308BFA3F18053A3F50003BCFA8CF2083AA3EBC25310DB01FA02FC634400FA02FC95
:4029C000C2F12002BCF1004F20FA02F243EB020008BF20F00100704702F1200201FA02FCC2F1200250EA4C0021FA02F243EB020008BF20EADC7070474FF0FF0C1CEAD0524B
:402A00001EBF1CEAD15392EA0C0F93EA0C0F6FD01A4480EA010C400218BF5FEA41211ED04FF0006343EA501043EA5111A0FB01310CF00040B1F5000F3EBF490041EAD37169
:402A40005B0040EA010062F17F02FD2A1DD8B3F1004F40EBC25008BF20F00100704790F0000F0CF0004C08BF49024CEA502040EA51207F3AC2BFD2F1FF0340EAC250704705
:402A800040F400004FF00003013A5DDC12F1190FDCBF00F000407047C2F10002410021FA02F1C2F1200200FA02FC5FEA310040F1000053EA4C0308BF20EADC70704792F021
:402AC000000F00F0004C02BF400010F4000F013AF9D040EA0C0093F0000F01F0004C02BF490011F4000F013BF9D041EA0C018FE70CEAD15392EA0C0F18BF93EA0C0F0AD0A3
:402B000030F0004C18BF31F0004CD8D180EA010000F00040704790F0000F17BF90F0004F084691F0000F91F0004F14D092EA0C0F01D142020FD193EA0C0F03D14B0218BF07
:402B4000084608D180EA010000F0004040F0FE4040F40000704740F0FE4040F4400070474FF0FF0C1CEAD0521EBF1CEAD15392EA0C0F93EA0C0F69D0A2EB030280EA010CB7
:402B800049024FEA402037D04FF0805343EA111143EA10130CF000408B4238BF5B0042F17D024FF4000C8B4224BF5B1A40EA0C00B3EB510F24BFA3EB510340EA5C00B3EBDB
:402BC000910F24BFA3EB910340EA9C00B3EBD10F24BFA3EBD10340EADC001B0118BF5FEA1C1CE0D1FD2A3FF650AF8B4240EBC25008BF20F0010070470CF0004C4CEA50209A
:402C00007F32C2BFD2F1FF0340EAC250704740F400004FF00003013A37E792F0000F00F0004C02BF400010F4000F013AF9D040EA0C0093F0000F01F0004C02BF490011F4E2
:402C4000000F013BF9D041EA0C0195E70CEAD15392EA0C0F08D142027FF47DAF93EA0C0F7FF470AF084676E793EA0C0F04D14B023FF44CAF08466EE730F0004C18BF31F05B
:402C8000004CCAD130F000427FF45CAF31F000437FF43CAF5FE700BF014B1868704700BFA081FF1F0E4B70B51E460E4C0025E41AA410A54204D056F8253098470135F8E7A0
:402CC00002F052FC084B094C1E46E41AA4100025A54204D056F8253098470135F8E770BD7455000074550000745500007C55000010B5431E0A44914204D011F8014B03F89B
:402D0000014FF8E710BD03460244934202D003F8011BFAE770472DE9F0471E4688B0149F002BB8BF06F10043129927F02007B6BF1E4600232D23462F1446109DDDF84CA0C8
:402D40000B7003D0452F03D1013501E0032300E002238DE8280406AB039307AB04932246334600F021FD472F804602D1119BDB0726D5462F08EB050911D198F80030302B50
:402D80000AD12046314600220023FFF7F5FC18B9C5F10105CAF80050DAF8003099442046314600220023FFF7E7FC08B1CDF81C90079B4B4504D25A1C079230221A70F7E7BB
:402DC0004046079B159AC8EB0303136008B0BDE8F087034673B50029B8BF494203F8022BB4BF2D222B22092942701ADD0DF1070426460A2291FBF2F502FB1511092D01F1EF
:402E0000300104F8011D2946F3DC3031651E04F8011CB5421A460AD215F8012B03F8012BF7E71A463024214402F8024B5970101A02B070BD2DE9F04F91B08B4615461E4643
:402E40001A9F044601F06CFAD0F800A0504600F019FC00230E933B680990073323F0070303F108029BF818803A60D3E90023CBE91223DBE9120100F0B9FB0128DBE9120198
:402E800019D100220023FFF781FC10B12D238BF84330A04BA04FB8F1470F88BF1F460323CBF81030DBF8003023F00403CBF800304FF00009A1E000F099FBDBF8003048B95A
:402EC000964A974FB8F1470F88BF17460322CBF81020E9E7DBF80420DBE91201571CCDE90A0101D1062209E0B8F1670F02D0B8F1470F05D1002A40F0C7810122CBF804202A
:402F0000DBF8042043F480638DE80C00CBF800300DF1330302930DAB03930EAB059300230693CDF81080DDE90A232046FFF7F3FE08F0DF03472B07460AD10D9BD81C03DB65
:402F4000DBF80420934237DDA8F102085FFA88F8B8F1650F0D9915D8013942460BF150000D91FFF736FF0E9A81468318012ACBF8103003DCDBF80020D10738D50133CBF888
:402F8000103034E0B8F1660F18D10029DBF8043009DDCBF810101BB9DBF80020D20721D501330B441CE01BB9DBF80020D00701D5023315E0012313E04FF067080D9B0E9AF5
:402FC000934207DBDBF80020CBF81030D10709D5013305E0002BD4BFC3F1020301231344CBF810300D9B4FF00009CBF858309DF8333013B12D238BF8433000962046594688
:403000000FAA2B4600F05CF9013002D14FF0FF3052E1DBF800305A0505D4204629463A46DBF8103008E1B8F1650F40F2D080DBE9120100220023FFF79FFB50B320462946CD
:40304000384A0123B0470130E0D00E9B0D9A9A4209DBDBF80030D80705D4DBF800309F0700F1108107E1204629465246099BB0470130CBD000270E9B013B9F42EDDA204606
:4030800029460BF11A020123B0470130BED00137F1E70D9B002B29DC20462946214A0123B0470130B2D00D9B2BB90E9B1BB9DBF80030D907D1D5204629465246099BB0471F
:4030C0000130A3D04FF000080D9B20465B429845294608DA0BF11A020123B047013095D008F10108F0E73A460E9BA5E0DBF858200E9B9A42A8BF1A46002A914602DC4FF007
:4031000000081CE0204629463A464B46B0470130F5D17BE70E5400000A54000016540000125400001A540000204629460BF11A020123B04701303FF469AF08F10108DBF8FE
:403140005830B9F1000FB4BF1A46C9EB03029045EADB07EB03080D9A0E9B9A4210DBDBF80030DA070CD40E9A1744C8EB07030D9FD21B9342A8BF1346002B1F4608DC0EE0C0
:40318000204629465246099BB0470130EBD13DE7204629464246B04701303FF437AF4FF000080AE0204629460BF11A020123B04701303FF42BAF08F101080D9A0E9B002F60
:4031C000A3EB0203A8BFDB1B9845EBDB45E70E9A012A01DCDB0736D5204629463A460123B04701303FF412AF204629465246099BB04701303FF40AAFDBE91201002200239D
:40320000FFF7BAFAE8B90E9B204629467A1C013B1DE0204629460BF11A020123B04701303FF4F4AE01370E9B013B9F42F1DB204629464B460BF15002B04701307FF40DAF13
:40324000E4E60027EFE7204629463A460123B0470130ECD1DAE6204629460BF119020123B04701303FF4D2AE0137DBF80C300F9A9B1A9F42EFDBDBF80C000F9B9842B8BF54
:40328000184619E00027F0E743F480638DE80C00CBF800300DF1330302930DAB03930EAB059300230693CDF810802046DDE90A23FFF731FD074640E611B0BDE8F08F00BF1E
:4032C0002DE9F84391461F468A680B6906469342B8BF1346C9F8003091F843200C46DDF8208012B10133C9F800302368990642BFD9F800300233C9F80030256815F006056F
:403300001CD094F843302268003318BF012392061FD5E118302081F843005A1C94F845102244023382F8431013E03046394604F119020123C047013007D00135E368D9F81D
:4033400000209B1A9D42F0DBDBE74FF0FF30BDE8F8833046394604F14302C0470130F4D02268D9F80050E36802F00602042A08BF5D1B2269A3680CBF25EAE5750025934232
:40338000C4BF9B1AED184FF00009A9450ADA3046394604F11A020123C0470130D5D009F10109F2E70020BDE8F88300002DE9FF410C461746227E98466E2A06460A9B01F194
:4033C000430100F0B08012D8632A23D00AD8002A00F0BD80582A40F0CC8084F84520DFF804E257E0642A1ED0692A1CD0C1E0732A00F0B18009D86F2A2ED0702A40F0B9801E
:40340000226842F0200222603FE0752A24D0782A3BD0AEE01A6804F14205111D1960136884F84230A9E020681A6810F0800F02D0101D186008E010F0400F02F10400186032
:4034400002D0B2F9003000E01368002B3EDA2D225B4284F8432039E020681A6810F0800F02D0101D186007E010F0400F02F10400186001D0138800E01368227EDFF864E1E5
:403480006F2A0CBF08220A221CE07822DFF858E184F845202268186812F0800F00F104051D6003D1550601D5038800E00368D00744BF42F0200222601BB9226822F020029C
:4034C00022601022002084F8430002E0DFF814E10A226568002DA8BF2068A560A4BF20F00400206003B965B10D46B3FBF2F002FB10331EF8033005F8013D03460028F4D1CB
:4035000000E00D46082A0BD12368DA0708D5236962689A42DEBF302305F8013C05F1FF35491B21612EE025681A6815F0800F606903D0151D1D60136808E015F0400F02F1EF
:4035400004051D60136801D0188000E01860002323610D4616E01A68111D1960156800212846626800F0E8FE08B1401B6060636804E004F1420584F842200123236100235C
:4035800084F84330CDF800803046214603AA3B46FFF796FE013002D14FF0FF301FE0304639462A462369C0470130F5D023689B0705D4E068039B9842B8BF18460FE0002534
:4035C000E368039A9B1A9D42F3DA3046394604F119020123C0470130DED00135F0E704B0BDE8F0811C5400002D54000031F0004310B51BD00F4AA1F58014944210D901F163
:40360000FF410C4A01F5E001914209D9B3F5801F08D3094A934207D1B0FA80F0400910BD042010BD032010BD002010BD0028E6D1022010BDFFFFDF7F0000F07F0EB400B538
:403640004FF402719CB0ADF814106FF00041049107914FF6FF711DABADF81610084953F8042B02900690086802A9019301F052FA029B00221A701CB05DF804EB03B07047C8
:40368000A081FF1F034613F8012B002AFBD1181A013870472DE9F74F03690C698046A3427EDB013C01F114074FEA840E00F1140606EB0E0357F82450019356F824300135A1
:4036C000B3FBF5F507EB0E09BDB34FF0000A3846B446D34650F8043B9AB21B0C02FB05A26B4303EB124392B2C2EB0B0BBCF800204FEA134A5A441FFA83FBDCF80030484519
:40370000CBEB134303EB224392B242EA03424FEA234B4CF8042BDDD956F80E306BB9019B043BB3421A4602D8C8F8104005E01268043B002AF8D1013CF3E7404601F01BF8A9
:4037400000282BDB304601354FF0000E57F8042B036891B2C1EB0E0E120C99B27144C2EB134303EB214389B24FEA234E4F4541EA034340F8043BE9D956F8242006EB84038E
:4037800062B9043BB3421A4602D8C8F8104005E01268043B002AF8D1013CF3E7284600E0002003B0BDE8F08F2DE9F04F456A95B08246219CCDE9022345B9102000F0B4FD0B
:4037C000CAF82400456085600560C560DAF82430196859B15A68012393404A608B60504600F0EDFDDAF8243000221A60039BA24A002BBDBF01232360039B0023BCBF23F077
:4038000000430393039FA8BF236027F000431B0D1B0593421DD142F20F73209A1360029B43B9964A964BC7F31300002814BF1846104600E09248229B002B00F06985C3784A
:4038400013B100F1080300E0C31C229A136000F05FBDDDE902450022204629460023FEF78BFF804658B1209A01231360229B002B00F03C8583481860013800F049BD13ABFF
:40388000009312AB0193504622462B4600F0EEFFC7F30A5607905EB1C5F3130343F07F51204641F44011A6F2FF36CDF844801DE0139B129E1E446FF482639E42A1BF029A24
:4038C00006F2124322FA03F06F4BB7BF6F4B9B1B029A9B1BAABF9F4002FA03F03843FEF77FFE0123A1F1F871013E11930022684BFEF738FD5AA3D3E9002301F059FA5AA338
:40390000D3E90023FEF730FD044630460D46FEF777FE57A3D3E9002301F04AFA02460B4620462946FEF720FD04460D4601F052FC29468346002220460023FEF727FF58B198
:403940005846FEF75DFE02460B4620462946FEF713FF08B90BF1FF3BBBF1160F0DD84D4B03EBCB03D3E90001DDE90223FEF72CFF30B10BF1FF3B002300E00123109300E05A
:403980001090129B9E1B731E0A9345BF5B420993002300234CBF0A930993BBF1000F07DB0A9BCDF834B05B440A9300230B9308E0099BCBEB03030993CBF100030B930023C0
:4039C0000D931E9B092B29D8052BC4BF043B1E931E9BC8BF0025A3F10203D8BF0125032B21D8DFE803F0020E0410002300E001230C931F9B002B20DC0123069305931A467A
:403A000019E0002300E001230C931F9B5B4406930133012B0593B8BF012311E0012500231E930C9501E001230C934FF0FF3306930593002212231F9202E01F9B069305939B
:403A4000DAF8244000226260042101F114029A4222D86268490001326260F6E7AFF3008061436F63A787D23FB3C8608B288AC63FFB799F501344D33F0000F07F3E54000083
:403A8000475400001B5400000EFCFFFFEEFBFFFF0000F83F585400005046616800F05AFCDAF8243020601B680893059B0E2B00F24781002D00F04481DDE90223BBF1000FA6
:403AC000CDE90E2331DDB14A0BF00F034FEA2B1602EBC303F006D3E900450CD5DDE90E01AB4B06F00F06D3E9082301F08BFA0327CDE9020100E00227DFF8948276B1F10799
:403B000008D5D8E900232046294601F051F904460D460137761008F10808EFE7DDE9020122462B4601F06EFA1BE0CBF10004DCB1DDE90E01954B04F00F0203EBC203D3E90E
:403B4000002301F035F9924D241102274CB1E20704D5D5E90023013701F02AF964100835F4E7CDE9020100E00227109BDBB1DDE90245002220462946864BFEF707FE90B145
:403B8000059B83B1069B002B40F3D680294620460022814B01F00CF90BF1FF36CDE902010137069D01E05E46059D3846DDE90289FEF726FD42464B4601F0FAF8774B002270
:403BC000FEF7D2FBCDE90201039BA3F150740394CDB9404649460022714BFEF7C3FB029A234680468946FEF7EFFD002840F0408240464946029A04F10043FEF7C7FD002832
:403C000040F0308298E0614B0C996A1E03EBC203002947D0D3E900230020624901F0F2F9DDE90223FEF79EFBCDE90201089C4946404601F0CFFA0746FEF7E2FC02460B467A
:403C400040464946FEF78EFBDDE90223303704F8017B80468946FEF799FD002840F0378342464B4600204B49FEF77CFBDDE90223FEF78CFD002840F0D080089BE31AAB42DE
:403C80005ADADDE902010022434B01F091F80022CDE90201404B4046494601F089F880468946C4E7D3E90001DDE9022301F080F8089BCDE902015C191D464946404601F065
:403CC00089FA0746FEF79CFC02460B4640464946FEF748FB303705F8017BA5428046894623D100222F4BDDE90201FEF73DFB02460B4640464946FEF767FD002840F08D8033
:403D0000DDE9022300202749FEF72CFB02460B4640464946FEF73AFD70B114F8013C621E302B40F0D4821446F7E700221A4B01F03FF880468946C0E7DDE90E23CDE9022352
:403D4000139B002BC0F28A80BBF10E0F00F386800E4B03EBCB03D3E900671F9B002B23DA059B002B20DC40F07C81304600220C4B394601F01DF8DDE90223FEF71BFD059DD0
:403D80002E46002840F06F8174E100BF58540000205500000000F03F0000244000001C40000014400000E03F089CDDE9028932463B464046494601F025F901F00BFA05465D
:403DC000FEF71EFC32463B4600F0F2FF0B46024649464046FEF7C6FA05F1300E089B04F801EBC3EB040E059B9E452AD102460B46FEF7BAFA32463B4680468946FEF7E4FCD5
:403E000070B94046494632463B46FEF7B5FC002800F05E82EB0703D45AE2B34600E01C4614F8012C631E392A07D1089A9342F6D13023137013460BF1010B1A7801321A70B4
:403E400046E20022A34B00F0B3FF0022002380468946FEF791FC0028A9D039E20C9A002A32D01E9A012A0ADC119A12B103F2334302E0129BC3F136030B9D099C18E0059B7B
:403E80005D1E0B9BAB42B7BF0B9B5D1BEA1A0D9BBEBF0B959B180D93059BB8BF0025002BB9BF099B059A099C059BBCBF9C1A0023099A50461A4409920A9A01211A440A9297
:403EC00000F01FFB064602E00B9D099C0C9E64B10A9B002B09DDA342A8BF2346099AE41AD21A09920A9AD31A0A930B9B002B20DD0C9BC3B1002D10DD31462A46504600F04D
:403F000099FB0646079A3146504600F003FB07460799504600F053FA07970B9B5A1B08D05046079902E0504607990B9A00F082FB07905046012100F0E4FA0D9B0546002B19
:403F40000ADD29461A46504600F074FB1E9B0546012B04DD00271BE01E9B012B13DC029B8BB9039BC3F313037BB9039B23F000473F0D3F0557B1099B0127013309930A9B3F
:403F800001330A9302E0002700E0029F0D9B43B12B6905EB8303186900F066FAC0F1200000E001200A9B184410F01F0008D0C0F12003042B02DDC0F11C0002E008D018469E
:403FC0001C30099B0444034409930A9B03440A93099B002B05DD504607991A4600F078FB07900A9B002B05DD294650461A4600F06FFB0546109BEBB10798294600F0BBFB25
:40400000002817DA0023504607990A2200F0EEF90C9B0BF1FF3B0790002B00F06B813146002350460A2200F0E1F9069B0646002B33DC68E1059B002B26DC1E9B022B23DD47
:40404000059B0693069B73B929460522504600F0CDF905460798294600F08DFB002809DC01E000252E461F9B089C6FEA030B08E0B3462E46089B089A5C1C312313700BF156
:40408000010BB14600260FE10C9B23B9059B0693089F079CC9E0059B0693002C05DD31465046224600F014FB0646AFB17168504600F050F90446326906F10C01023292007A
:4040C0000C30FEF715FE50462146012200F000FB814602E000002440B146089F079C29462046FFF7D7FA3146099000F13008204600F041FB4A4605902946504600F057FB50
:40410000C26803463AB919462046079300F033FB079B024600E0012250461946079200F04EF9079A92B91E9B83B9029B03F0010363B9B8F1390F3B4607943ED0059B7C1C06
:40414000002BC4BF099B03F131083DE0059B002B04DA002AC446079408DC21E024D11E9B13BB029B03F00103F3B9F2E72146012250460597CDF8088000F0AAFA294607900E
:4041800000F0F9FA0028DDF808C0059B03DC07D118F0010F04D0B8F1390F0ED008F1010C7C1C87F800C07FE0002A07F101020EDDB8F1390F3B46079403D1392201371A70FB
:4041C00057E0144608F1010887F800806CE0089B1746D31A02F8018C069A93423AD021460A220023504600F001F94E450446314650464FF00A024FF0000304D100F0F6F88E
:40420000064681466BE700F0F1F8494606460A225046002300F0EAF8814660E7214650460A22002300F0E2F8044620462946FFF731FA089B00F1300807F8018B069AFB1A3E
:404240009342EBDB089BB146012AACBF9B1801331F46002621460122504600F039FA2946079000F088FA002803DC15D118F0010F12D03C4614F8013C621E392B09D1089B33
:404280009A4204D10BF1010B3123089A02E01446F0E70133137007E03C4614F8013C621E302B01D11446F8E75046294600F087F8B9F1000F0CD02EB14E4503D05046314692
:4042C00000F07DF85046494600F079F800E0B3465046079900F073F80023209A23700BF101031360229B1BB11C6001E00A480FE008980DE0069B002B3FF7CAAE1E9B022B72
:404300003FF7A0AEC4E61E9B022B3FF79BAEC4E615B0BDE8F08F00BF1A540000AFF3008000487047A481FF1F024B0146186800F041BB00BFA081FF1F10B5C9B20244904270
:40434000034605D01C7801308C42F8D1184610BD002010BD70B5456A04460E463DB91020FFF7E2FF6062456085600560C560656AEB6843B1636ADB6853F8260078B102683C
:4043800043F8262017E020460421212200F0C0FA636AE860DB68002BECD1002070BD012101FA06F56A1D2046920000F0B1FA0028F3D04660856000230361C36070BD70B5DC
:4043C000446A06460D463CB91020FFF7ADFF7062446084600460C4603DB1736A6A68DB6853F82210296043F8225070BD2DE9F04106460C460F69984601F1140E0023DEF8BF
:404400000000013385B2010C02FB0585514301EB1541ADB24FEA1148BB4205EB01414EF8041BECDBB8F1000F1BD0A3689F4212DB616830460131FFF78DFF0546226904F121
:404440000C01023292000C30FEF752FC21463046FFF7B5FF2C4604EB87030137C3F8148027612046BDE8F081030C1B0413B90004102300E0002310F07F4F04BF00020833EB
:4044800010F0704F04BF0001043310F0404F04BF80000233002803DB420003D5581C70471846704720207047036813F007020BD0D90722D49A074BBF5B089B080360036045
:4044C0004CBF01200220704799B209B91B0C102213F0FF0F04BF1B0A0832190704BF1B090432990704BF9B080232D90702D45B0805D00132036010467047002070472020FF
:40450000704710B50C460121FFF724FF01224461026110BD2DE9F74F14460A69236988469A42BEBF0B46A0461C46D8F81070D4F81090D8F80830D8F8041007EB09069E427C
:40454000C8BF0131FFF706FF00F114052B4605EB860C634503D2002243F8042BF9E704F1140208F1140102EB890301EB87070093009B01929A4257D2B2F800B0BBF1000FBA
:4045800023D08946AE464FF0000859F8044BBEF800A0A3B20BFB03A34FEA144ADEF8004043444FEA14480BFB0A84F24604EB13449BB243EA04434F454FEA14484AF8043BC1
:4045C00001D9D646E1E7CEF80480019B0432B3F802A0BAF1000F21D02C4689462B684FF00008B9F800E0B4F802B09BB20AFB0EBEA346F04443EA08434BF8043B59F8043B1A
:40460000B4F804E01B0C0AFB03E3B94503EB18434FEA134801D25C46E3E763600435A7E75CF8043D13B9013E002EF9DC066103B0BDE8F08F12F003032DE9F04106460F4663
:40464000154607D0214A013B52F823200023FFF7CDFE0746AD1035D0746A3CB91020FFF763FE7062446084600460C460D6F82480D8F808407CB9304640F27121FFF741FF76
:404680000023C8F808000446036004E06D1019D0206870B10446EB07F8D5394622463046FFF738FF804639463046FFF788FE4746ECE7304621462246FFF72CFF002320603C
:4046C0000360E7E73846BDE8F08100BF485500002DE9F0470C460746164623694FEA621A0AEB03094968A36809F101059D4202DD01315B00FAE73846FFF72CFE804600F1D2
:4047000014010023534504DA002241F823200133F8E72AEAEA73206901EB830316F01F0204F1140101EB800E14D0C2F1200C00200E689A469640304343F8040B51F8040BDF
:40474000714520FA0CF0F3D3CAF8040048B109F1020506E0043B51F8042B714543F8042FF9D3013D3846C8F810502146FFF727FE4046BDE8F08703690A6910B59B1A11D11F
:4047800092001430143183180A4453F8044D52F8041D8C4202D007D3012010BD8342F4D8002010BD184610BD4FF0FF3010BD2DE9F84307460C46084611461546FFF7DBFFE2
:4047C000061E08D138463146FFF7C4FD012303614661BDE8F883BCBF23462C4638466168BABF1D4601260026FFF7B4FD2B69C660266905F1140904F1140101EB860709EB81
:40480000830800F114054FF0000C51F8042B59F8044B93B29C44A3B2240CC3EB0C03C4EB124202EB23429BB24FEA224CC84543EA02428E4645F8042BE7D8BE450ED25EF81A
:40484000043B9AB262441B0C03EB224392B242EA03424FEA234C45F8042BEEE755F8043D0BB9013EFAE70661BDE8F8832DE9F3411C4601211546089F099EFFF76BFDC4F36A
:404880001302C4F30A5480460CB142F480120192EDB102A840F8085DFFF706FE009B50B1019AC0F1200102FA01F10B43C240C8F81430019201E0C8F81430019B002B14BFB4
:4048C00002250125C8F81830C8F8105009E001A8FFF7EAFD019B0125C8F81430C8F81050203034B1A4F2334404443C60C0F1350009E0A0F2324008EB850338601869FFF76B
:40490000B3FDC0EB45103060404602B0BDE8F08138B502FB01F4214600F04CF8054618B100212246FEF7EFF9284638BD30B500293CD051F8042C0B1F1D49002AB8BF9B181B
:404940000A680C4612B95A600B6030BD93420DD219685818904201BF5A5852181A60426823605A6030BD994203D80A4651680029F9D1146815199D420AD11B682344D0180D
:404980008842136012D10868034413604B680CE002D90C23036030BD1C681819884201BF08684968001918605960536030BD00BF2082FF1F70B5CC1C24F0030408340C2C4F
:4049C00038BF0C24002C064603DA0C233360002070BD8C42F9D3204A136810461946A1B10A68121B0ED40B2A03D90A608B188C501FE08B420BBF5A684A6802605A6018BF2E
:404A00000B4616E00B464968E9E7144D2B681BB9304600F071F928603046214600F06CF9421C0346D1D0C51C25F0030585420AD11C6003F10B001A1D20F00700821A0AD0E4
:404A40005142995070BD3046E91A00F055F90130BBD02B46ECE770BD2082FF1F1C82FF1F2DE9F0478E688246B3420C469046994640D38A8912F4906F3AD0256809690223CD
:404A80006F1A656905EB450595FBF3F57B1C4B449D4238BF1D4653050FD52946FFF78AFF064698B121693A46FEF722F9A38923F4906343F08003A38113E02A4600F047F912
:404AC000064670B950462169FFF730FF0C23CAF80030A3894FF0FF3043F04003A381BDE8F08726613E4426604E466561ED1BA560B14500D24E4632462068414600F00CF9BD
:404B0000A36800209B1BA36023681E442660BDE8F08700002DE9F0439DB003938B8906461C060D4690460CD50B6953B94021FFF741FF2860286110B90C233360CCE0402388
:404B40006B610023099320238DF8293030238DF82A3043461C4613F8012B1AB9B4EB08090FD002E0252AF5D1F8E73046294642464B46FFF775FF013000F0A980099B4B4418
:404B800009932378002B00F0A28000234FF0FF3204930793059206938DF853301A9304F101084446DFF84891217848460522FFF7C3FB08F10108049B30B1C9EB0000012245
:404BC000824013430493ECE7D80644BF20228DF85320190744BF2B228DF8532022782A2A02D0079923460EE0039A0134111D12680391002ABBBF524243F002030792079249
:404C0000B8BF04930AE01C4622780133303A092A03D80A2000FB0121F5E7079123782E2B1AD163782A2B0AD1039B02341A1D1B680392002BB8BF4FF0FF3305930CE0611CF8
:404C400000220C4623780131303B092B03D80A2000FB0232F5E70592DFF89880217840460322FFF769FB38B1049AC8EB00004023834013430493013421781A48062204F186
:404C800001088DF82810FFF757FB88B1164B33B9039B073323F007030833039313E003AB0093304604A92A46104BFEF7C3F807E003AB0093304604A92A460C4BFEF776FB50
:404CC000421C074603D0099B3B44099341E7AB895B0601D4099801E04FF0FF301DB0BDE8F08300BF5E550000352E0000614A0000545500005A55000038B5064C002305468B
:404D000008462360FBF728FA431C02D1236803B12B6038BD1883FF1F814210B501EB020301D3421E0BE09842FBD28118D21AD34204D013F8014D01F8014DF8E710BD994210
:404D400004D011F8014B02F8014FF8E710BDF8B5074615460E4621B91146BDE8F840FFF729BE1AB9FFF7E2FD2846F8BD00F015F8A8420ED238462946FFF71CFE044650B1A6
:404D800031462A46FDF7B4FF38463146FFF7CEFD01E03046F8BD2046F8BD51F8040C0028BEBF091851F8043CC01804387047000070B54FF0FF0C4CF4E06C1CEA11541DBFD3
:404DC0001CEA135594EA0C0F95EA0C0F00F0DEF82C4481EA030621EA4C5123EA4C5350EA013518BF52EA033541F4801143F4801338D0A0FB02CE4FF00005E1FB02E506F059
:404E00000042E0FB03E54FF00006E1FB03569CF0000F18BF4EF0010EA4F1FF04B6F5007F64F5407404D25FEA4E0E6D4146EB060642EAC62141EA55514FEAC52040EA5E5025
:404E40004FEACE2EB4F1FD0C88BFBCF5E06F1ED8BEF1004F08BF5FEA500E50F1000041EB045170BD06F0004646EA010140EA020081EA0301B4EB5C04C2BFD4EB0C0541EA33
:404E8000045170BD41F480114FF0000E013C00F3AB8014F1360FDEBF002001F0004170BDC4F10004203C35DA0C341BDC04F11404C4F1200500FA05F320FA04F001FA05F268
:404EC00040EA020001F0004221F0004110EBD37021FA04F642EB06015EEA430E08BF20EAD37070BDC4F10C04C4F1200500FA04F320FA05F001FA04F240EA020001F00041B2
:404F000010EBD37041F100015EEA430E08BF20EAD37070BDC4F1200500FA05F24EEA020E20FA04F301FA05F243EA020321FA04F001F0004121FA04F220EA020000EBD37052
:404F40005EEA430E08BF20EAD37070BD94F0000F0FD101F00046400041EB010111F4801F08BF013CF7D041EA060195F0000F18BF704703F00046520043EB030313F4801F17
:404F800008BF013DF7D043EA0603704794EA0C0F0CEA135518BF95EA0C0F0CD050EA410618BF52EA4306D1D181EA030101F000414FF0000070BD50EA410606BF104619466D
:404FC00052EA430619D094EA0C0F02D150EA013613D195EA0C0F05D152EA03361CBF104619460AD181EA030101F0004141F0FE4141F470014FF0000070BD41F0FE4141F46A
:40500000780170BD70B54FF0FF0C4CF4E06C1CEA11541DBF1CEA135594EA0C0F95EA0C0F00F0A7F8A4EB050481EA030E52EA03354FEA013100F088804FEA03334FF08055EA
:4050400045EA131343EA12634FEA022245EA111545EA10654FEA00260EF000419D4208BF964244F1FD0404F5407402D25B084FEA3202B61A65EB03055B084FEA32024FF405
:4050800080104FF4002CB6EB020E75EB030E22BFB61A754640EA0C005B084FEA3202B6EB020E75EB030E22BFB61A754640EA5C005B084FEA3202B6EB020E75EB030E22BF76
:4050C000B61A754640EA9C005B084FEA3202B6EB020E75EB030E22BFB61A754640EADC0055EA060E18D04FEA051545EA16754FEA06164FEAC30343EA52734FEAC2025FEA27
:405100001C1CC0D111F4801F0BD141EA00014FF000004FF0004CB6E711F4801F04BF01430020B4F1FD0C88BFBCF5E06F3FF6AFAEB5EB030C04BFB6EB020C5FEA500C50F13A
:40514000000041EB045170BD0EF0004E4EEA113114EB5C04C2BFD4EB0C0541EA045170BD41F480114FF0000E013C90E645EA060E8DE60CEA135594EA0C0F08BF95EA0C0F8A
:405180003FF43BAF94EA0C0F0AD150EA01347FF434AF95EA0C0F7FF425AF104619462CE795EA0C0F06D152EA03353FF4FDAE1046194622E750EA410618BF52EA43067FF41F
:4051C000C5AE50EA41047FF40DAF52EA43057FF4EBAE12E74FEA410212F5001215D211D56FF47873B3EB625212D94FEAC12343F0004343EA505311F0004F23FA02F018BF7F
:40520000404270474FF00000704750EA013005D111F0004008BF6FF0004070474FF00000704700BF00000000252E336620252E33660000003C510040244300401D510040D1
:40524000585B00402D510040244300400200800880000000035B0040035B004040200000005100401000405100403000C0510040100000000140001000140140000800403F
:405280000140000A004C014000020050014020000D0A0000303132333435363738394142434445460000000001000000B052000001000000F453000000000000000000005F
:4052C00001000000C852000001000000B053000003000000F45200000000000000000000000000000000000000000000F0520000020A0000000081030800020001008202E5
:4053000040000A000100030240000A0002030000040309042C0343007900700072006500730073002000530065006D00690063006F006E0064007500630074006F00720023
:40534000100355005300420055004100520054003803430044004300200043006F006D006D0075006E00690063006100740069006F006E00200049006E0074006500720057
:405380006600610063006500260343004400430020004400610074006100200049006E0074006500720066006100630065000000090243000201018032090400000102020A
:4053C0000103052400100104240202052406000105240100010705810308000A09040100020A0000040705820240000007050302400000001201000202000008B40432F20C
:4054000001000102800100004300494E4600696E66004E414E006E616E00300030313233343536373839414243444546003031323334353637383961626364656600496E85
:4054400066696E697479004E614E00504F534958002E000000000000000000000000F03F000000000000244000000000000059400000000000408F40000000000088C34015
:4054800000000000006AF8400000000080842E4100000000D01263410000000084D797410000000065CDCD41000000205FA00242000000E876483742000000A2941A6D425D
:4054C000000040E59C30A2420000901EC4BCD64200003426F56B0C430080E03779C3414300A0D8855734764300C84E676DC1AB43003D9160E458E143408CB5781DAF1544AB
:4055000050EFE2D6E41A4B4492D54D06CFF08044F64AE1C7022DB544B49DD9794378EA440080E03779C34143176E05B5B5B89346F5F93FE9034F384D321D30F94877825A32
:405540003CBF737FDD4F157505000000190000007D000000232D302B2000686C4C0065666745464700000000F8B500BFF8BC08BC9E4670474D000000D5010000F8B500BFF0
:40558000F8BC08BC9E46704729000000A05500000881FF1FD80000004001000000000000000000002083FF1FFF01FF000000E02EC05D00001800000000366E0100C201008F
:4055C00000000800C201000000080000A1200000000002000000000000000000000000000000000000000000000000000000000000000000000000000854000000000000B9
:4056000000000000000000000000000000000000000000000000000000000000000000000000000000000000000000000000000000000000000000004081FF1F51540000E6
:40564000595500005955000059550000595500005955000059550000595500005955000059550000FFFFFFFFFFFFFFFFFFFFFFFFFFFF00000000000000000000000000001A
:4056800000000000000000000000000000000000000000000000000000000000000000000000000000000000000000000000000000000000000000000000000000000000EA
:4056C00000000000000000000000000000000000000000000000000000000000000000000000000000000000000000000000000000000000000000000000000000000000AA
:405700000000000000000000000000000000000000000000000000000000000000000000000000000000000000000000000000000000000000000000000000000000000069
:405740000000000000000000000000000000000000000000000000000000000000000000000000000000000000000000000000000000000000000000000000000000000029
:020000040003F7
:0200000480007A
:40000000014500400152004001090140040A0140010B0140011501400217014002190140011B014003400140034101400342014003430140024401400145014003460140A8
:40004000074701400648014001490140034C0140024D0140015101407E027C40B502B802BE01D804DF011D02EC10EA02EE0AEA02EE0AEC1033813640CC709F01A640A7800A
:400080009F01A640A7809F01A640A7807C01DE01940145089401D00108080B040F40A508B401C20EEC082510AE40AF81C820EA40EE50B510A508AC08AF44B508EC08002A17
:4000C0004000000000000000C0000000000000000000800000000000000080000000000000004200070018010000000000000000000000000000000000000000000000009E
:4001000000000000000000000000000000000000000000000000000000000000000000000000000000000000000000000000000000000000000000000000000000000000BF
:40014000000000000000000000000000000000000000000000000000000000000000000000000000000000000000000000000000000000000000000000000000000000007F
:40018000000000000000000000000000000000000000000000000000000000000000000000000000000000000000000000000000000000000000000000000000000000003F
:4001C00000000000000000000000000000000000000000000000000000000000000000000000000000000000000000000000000000000000000000000000000000000000FF
:0200000490006A
:0400000000004005B7
:0200000490105A
:04000000BC90ACAF55
:0200000490303A
:0200000087EF88
:0200000490402A
:4000000000000000000000000000000000000000000000000000000000000000000000000000000000000000000000000000000000000000000000000000000000000000C0
:400040000000000000000000000000000000000000000000000000000000000000000000000000000000000000000000000000000000000000000000000000000000000080
:400080000000000000000000000000000000000000000000000000000000000000000000000000000000000000000000000000000000000000000000000000000000000040
:4000C0000000000000000000000000000000000000000000000000000000000000000000000000000000000000000000000000000000000000000000000000000000000000
:0200000490501A
:0C00000000012E16106900012E369858E1
:00000001FF